:020000040800F2
:1000000010360020ED010008FF4C0008793F000881
:10001000FD4C0008651100084D600008000000005C
:10002000000000000000000000000000E95400088B
:1000300095120008000000007D500008EB540008F5
:10004000070200080702000807020008070200086C
:10005000070200080702000807020008070200085C
:1000600007020008070200080702000869110008DB
:1000700075110008811100088D11000807020008A1
:10008000070200080000000007020008070200083D
:10009000070200080702000807020008070200081C
:1000A000070200080702000807020008070200080C
:1000B0006955000807020008070200080702000847
:1000C00007020008070200080702000807020008EC
:1000D00007020008095E0008155E00080702000814
:1000E00007020008070200080702000807020008CC
:1000F00007020008070200080702000800000000CD
:1001000000000000070200080000000007020008CD
:1001100007020008000000000702000807020008AC
:10012000070200080702000807020008070200088B
:10013000070200080000000000000000070200089D
:10014000070200080702000800000000000000008D
:10015000000000000000000000000000000000009F
:10016000000000000000000000000000070200087E
:10017000070200080000000000000000000000006E
:10018000000000000702000800000000000000005E
:10019000000000000000000000000000000000005F
:1001A000000000000000000007020008070200082D
:1001B000070200080702000807020008000000000C
:1001C000000000000702000800000000000000001E
:1001D0000702000807020008DFF80CD000F0F6FB69
:1001E00000480047616D000810360020064880472F
:1001F00006480047FEE7FEE7FEE7FEE7FEE7FEE70C
:10020000FEE7FEE7FEE7FEE759550008D9010008C2
:100210002DE9F05F0546002092469B46884606463B
:10022000814640241BE0284641464746224600F0CE
:1002300074F953465A46C01A914110D311461846D4
:10024000224600F05BF92D1A67EB01084F46224663
:100250000120002100F052F917EB00094E41201E49
:10026000A4F10104DFDC484631462A464346BDE896
:10027000F09F2DE9F0410024061B254671F1000690
:1002800005DA01240027D0EB070067EB0101161EF9
:1002900073F1000605DA0027D2EB0702012567EBB0
:1002A0000303FFF7B5FF86460E4617469C46AC4251
:1002B00004D00025D0EB050E65EB010624B100202B
:1002C000D2EB000760EB030C704631463A466346BA
:1002D000BDE8F08140EA01039B0703D009E008C9AB
:1002E000121F08C0042AFAD203E011F8013B00F8FB
:1002F000013B521EF9D27047D2B201E000F8012B47
:10030000491EFBD270470022F6E710B513460A4695
:1003100004461946FFF7F0FF204610BD30B50546EC
:100320002A460B4612F8010B13F8014B08B1A04204
:10033000F8D01CB1002802D06D1CF1E7284630BD72
:10034000CAB2401E10F8011F8A4202D00029F9D11A
:1003500000207047421C10F8011B0029FBD1801AB5
:1003600070472DE9FE4F81EA030404F0004421F0B8
:10037000004100944FF0000B23F0004350EA0104C9
:100380005ED052EA03045BD0C3F30A54C1F30A55AA
:100390002C44A4F2F3340194A0FB0254C1F31301E2
:1003A00041F48011C3F3130343F4801301FB0244AF
:1003B00000FB034E840A970A44EA815447EA8357B4
:1003C000A4FB076802958D0A05FB07854FEA932C6D
:1003D00004FB0C542705029D4FEA065847EA1637DE
:1003E000B5EB08056EEB070C870E920E47EA8117F6
:1003F00042EA8312A7FB0201B6EB0B0164EB000497
:100400002B0D43EA0C335E1844EB1C50DA46514680
:10041000E7FB0201C5F313044FEA0B3343EA14531D
:100420004FEA0432019C43EA0603A4F10C0402944F
:10043000009CCDE900B400F035F903B0BDE8F08FC1
:1004400000200146F9E7F0B4CA17CB0F50405140E5
:10045000C61841F100054FEAC372314628004FF03B
:10046000960303D0B623F0BC00F0DFB8304600217D
:10047000F9E700F0004230F000400AD0C10D01F56C
:100480006071C0F3160042EA0151C20840071143EF
:10049000704700200146704701F0004330B421F05E
:1004A000004150EA010206D00A0DA2F56072C1F3C4
:1004B0001301002A02DC30BC00207047440F44EADC
:1004C000C104C100E01830BC00EBC25000F0A4B879
:1004D00030B50B46014600202022012409E021FA14
:1004E00002F59D4205D303FA02F5491B04FA02F511
:1004F0002844151EA2F10102F1DC30BD202A04DBE4
:10050000203A00FA02F1002070479140C2F1200326
:1005100020FA03F3194390407047202A04DB203A65
:1005200021FA02F00021704721FA02F3D040C2F113
:1005300020029140084319467047426842B1016861
:1005400011F8013B23B1521EC0E900121846704752
:100550000121C160881E704742685AB1C3680168B2
:1005600043B983688B4205D0491E521CC0E9001272
:10057000002070474FF0FF30704700000FB4002399
:1005800000B589B00CA900910B996FF00042CB60C7
:100590001E4B06931E4B07930423CDE901321D4ADF
:1005A000089202466B46002000F0CEFA09B05DF8D2
:1005B00014FB70B586B006464FF0FF300091CDE9D0
:1005C0000101002015460C4604903246694604A8F5
:1005D000FFF7D4FF02460498211825B108B1084658
:1005E00000E020462860049800280DD0002A02DD93
:1005F0000098884208D0081B0094CDE901043246D7
:10060000694604A8FFF7BAFF06B070BD3B050008B5
:1006100059050008150A00080029A8BF7047401CAA
:10062000490008BF20F00100704710B4B0FA80FC08
:1006300000FA0CF050EA010404BF10BC704749B145
:10064000CCF1200421FA04F411FA0CF118BF0121B5
:1006500021430843A3EB0C01CB1D4FEA00614FEA95
:10066000102042BF002010BC704700EBC350104464
:100670000029A4BF10BC7047401C490008BF20F0EF
:10068000010010BC704710B5141E73F1000408DAA5
:10069000401C41F1000192185B411A4301D120F046
:1006A000010010BD2DE9F04D92469B4611B1B1FA03
:1006B00081F202E0B0FA80F220329046FFF71EFF8E
:1006C00004460F4640EA0A0041EA0B0153465A46E7
:1006D000084313D0114653EA010019D0C8F1400273
:1006E0005046FFF71AFF05460E4650465946424609
:1006F000FFF704FF084305D0012004E020463946F7
:10070000BDE8F08D0020054346EAE0762C433743F0
:100710000A986305E40AA0EB08000022FD0A44EAF7
:1007200047540A3002D500200146E9E701051019B7
:100730006941DDE9084500196941BDE8F04DA2E7CE
:100740002DE9FE4F804681EA0300C00F0C46009061
:1007500021F0004123F00045B8EB0200A94105D289
:100760004046214690461C460B46024623F0004078
:10077000104347D0270DC7F30A00C3F30A51029074
:10078000401A019040286BDAC3F3130040F4801B39
:100790000098924620B10023D2EB030A63EB0B0BC7
:1007A00001985946C0F140025046FFF7A7FE0646A1
:1007B0000D4650465946019A00F01AF910EB080010
:1007C0006141002487EA115284EAE7731A4340D05A
:1007D000009A62B3019A012A4FEA075215DC001B06
:1007E00061EB02014FF0004202EA0752CDE90042FC
:1007F000001C41F5801132462B46FFF753FF03B032
:10080000BDE8F08F40462146F9E7001B61EB02018D
:10081000001C41F5801300185B412018A2F5001759
:1008200047EB030140EAD570B6196D4111E06D0840
:100830004FEA360645EAC0754FEA0752001B61EBE6
:100840000201001C41F5801149084FEA30000019EF
:10085000514132462B4603B0BDE8F04FFFF713BFBE
:100860000098012240000023D0EB020263EBE0730A
:10087000009821464FEAE074B8EB000061EB0401F8
:10088000E9E783F000435BE781F0004158E72DE999
:10089000F04D81EA030404F0004B21F000451446BA
:1008A0004FF0000A23F0004150EA050220D054EA3C
:1008B00001021DD0C5F30A570246C5F31303C1F365
:1008C0001300C1F30A5640F4801543F48013A7EBDC
:1008D0000608101BD64608F2FD3873EB050002D35C
:1008E00008F1010801E092185B41B8F1000F03DA4A
:1008F00000200146BDE8F08D00204FF4801106462F
:1009000084460EE0171B73EB050705D3121B63EB40
:10091000050306434CEA010C49084FEA30009218DF
:100920005B4150EA0107EDD152EA030012D082EA9E
:10093000040083EA0501084305D0101BAB4106D231
:100940000122002306E000224FF0004302E06FF096
:10095000010253101AEB06004CEB085110EB0A0091
:1009600041EB0B01BDE8F04DFFF78DBEC1F30A521C
:10097000C1F3130140F2FF3341F480119A4202DACD
:1009800000200146704740F233439A42A2F23342BC
:1009900002DC5242FFF7C1BDFFF7B0BD30B5041E07
:1009A00071F1000404DB4FF00044404264EB0101AC
:1009B000141E73F1000405DB1C464FF00043524245
:1009C00063EB0403994208BF904230BD064C074DCB
:1009D00006E0E06840F0010394E80700984710340F
:1009E000AC42F6D3FFF7FCFB98840008B8840008FB
:1009F000202A06DBCB17203A41FA02F043EAE073E3
:100A000006E041FA02F3D040C2F1200291400843CF
:100A100019467047C0B24FF4F05100F0B1B9000070
:100A20002DE9FF4F087883B09946FF2805D0491C6F
:100A30002D2804D00024002008E000200BE0012431
:100A4000F9E700EB800003EB4000491C0B78FF2B1B
:100A5000F7D104B1404200230293147819461D4691
:100A60002D2C01D02B2C04D1521C2D2C13D0002462
:100A70000294AA461478FF2C0FD00A25A3FB057810
:100A800001FB05814FF0000C03FB0C11521CE31914
:100A90004AEB0101EEE70124EAE7814453EA010051
:100AA00002D019F5C87F06DA03980021C0E90011C9
:100AB00007B0BDE8F08F0025AE4E2F46DFF8B882B4
:100AC000184600F071F9CDE90001B9F1000002DA31
:100AD000C9F1000400E004460023A74A1AEB030B07
:100AE00042EB045A12E0E00707D02A463346384664
:100AF0004146FFF736FC074688462A4633461046ED
:100B00001946FFF72EFC05460E466410002CEAD16C
:100B1000DDE90001B9F1000F5A46534606DAFFF746
:100B2000B6FE3A464346FFF7B2FE05E0FFF719FC72
:100B30003A464346FFF715FC029A0AB181F000419C
:100B4000039AC2E90001B3E72DE9FF4F1F468DB0BC
:100B5000D7E901464FF0FF382E2045464FF00009F7
:100B60000B90B9696D1C0E988847396A8246884790
:100B70000028F6D1BAF1FF3F0AD024F4D064002E49
:100B800011DDBAF12B0F08D0BAF12D0F0BD102E015
:100B9000404611B08DE744F48064B9696D1C0E982D
:100BA00088478246761E6946600501D52D2000E003
:100BB0002B208DF8000001F1010B0DF1200809E058
:100BC000B9696D1C0E98884782460F9844F40074EA
:100BD000761E0560002E02DDBAF1300FF0D00B99C1
:100BE0008A453ED144F0800406E00F99681CA9F1C3
:100BF000010944F400740860B9696D1C761E0E98F2
:100C0000884782463028F0D02BE00B998A4505D1E1
:100C1000200603D444F08004761E18E0504605F008
:100C200063FB08B30DF11301761E44F400748B4589
:100C300008D2AAF130000BF8010B200607D5A9F164
:100C4000010003E0200602D409F101008146A0055D
:100C500002D50F99681C0860B9696D1C0E98884709
:100C60008246002ED1DC53E0002E51DDBAF1650F33
:100C700002D0BAF1450F4BD1A00549D5B9696D1C19
:100C800024F44074761E0E9888478246002E0CDDB0
:100C90002B2804D0BAF12D0F07D144F48074B96920
:100CA0006D1C0E9888478246761EE00501D52D21E1
:100CB00000E02B2108F8011BCDF82C8021E00DF17C
:100CC0002901761E44F4007488450CD2AAF1300044
:100CD00010F0FF0088F8000002D10B99884509D96F
:100CE00008F1010806E0E00501D5244801E042F2E0
:100CF0000F708146B9696D1C0E98884782460F981F
:100D00000560002E04DD504605F0EEFA0028D6D12D
:100D1000F9690E988847FF208BF8000088F80000DA
:100D20000020069007904B466A4608A906A8FFF7E0
:100D300077FEA00502D46FF001002AE714F0240F1B
:100D40000AD0E00714D1DDE906123868031D3B60C4
:100D50000068C0E900120BE0DDE90601FFF79CFB2B
:100D60000146E00704D13868021D3A60006801605E
:100D700028460EE7000014400000F03FF1D8FFFFC6
:100D80007F2801D9002208E0064A02EB5002C00782
:100D9000127800D1120902F00F02012090400840A1
:100DA00070470000588400080EB540F233420292AA
:100DB0000022CDE900221346FFF774FC03B000BD0A
:100DC00010B5012000F00CF808B1012010BD0A2078
:100DD00000F084FCBDE81040112000F001B80000D4
:100DE00001B582B064200090012302AA4621024886
:100DF00000F062FE0EBD0000900000202DE9F05FC3
:100E000083465D485D495E4C00684FF0000AC2179A
:100E1000411842F1FF30A1FB012300FB0133B4F97B
:100E2000105001FB0038A2FB0537EE1708FB0575D3
:100E300002FB0659B4F90E50A5FB017CEE1706FB28
:100E400001C605FB00656E0446EAD7367F04FB1831
:100E500046EB09061AEB0309B4F90A30B4F90C5051
:100E6000A2FB037C46EBC5054FEAE37608FB03C310
:100E700002FB0632B4F908604FEA1723A6FB01C84B
:100E80004FEAE67707FB018106FB00104FEA0031CD
:100E900043EA02634FEA0C3041EA1C51181841EB57
:100EA0002222001C42F50043E288A0FB027603FBED
:100EB000026200FB0A204210C31752EA030058D016
:100EC000CBF58010C117C907C60741EA5001B6EB40
:100ED000090640F63547A6FB070C61EB050101FB4F
:100EE00007C1002506FB0511FFF7C3F9B4F9165039
:100EF000420B42EAC142A5FB027CEE1706FB02C68A
:100F00004B1305FB0365A7FB026C05FB02C207FB45
:100F10000323B4F91450720EA5FB007CEE1706FBF8
:100F200000C605FB0166FD0C42EAC312801845EAC3
:100F3000463541EB636140194FEA1022B4F91200C3
:100F400041EBE6414FEAE0734FEA031343EA1073C3
:100F500042EA01624FEA0010101843EB2121FFF72B
:100F600072FA00EE100ADFED070A20EE200ABDE853
:100F7000F09F9FED050AFAE724000020000CFEFF19
:100F8000001C00200000803B0000000010B500F0B5
:100F9000C6F800280CD000F00DF8002808D0012277
:100FA00000231146032000F0A3F8002800D0012000
:100FB00010BD000000B587B018226946882000F0F7
:100FC00085F8002825D01448BDF800100180BDF830
:100FD00002104180BDF804108180BDF80610C18068
:100FE000BDF808100181BDF80A104181BDF80C1050
:100FF0008181BDF80E10C181BDF810100182BDF8CD
:1010000012104182BDF814108182BDF81610C18201
:10101000012007B000BD0000001C0020F8B5054607
:1010200003226946FA2000F051F8D0B39DF8000081
:101030009DF80110000340EA01109DF8021050EAEB
:1010400011143BD003226946F72000F03FF840B36B
:101050009DF800009DF80110000340EA01109DF882
:10106000021050EA111029D01549E2100B88B1F98D
:101070000260A2EB4302C3EB24135B43B1F90410FB
:1010800072431B13D2124B4302EBA3310D4A116082
:1010900001EB81018031091200EE101AB8EEC00A8E
:1010A00000E00BE09FED081AC0EE010AC5ED000A52
:1010B000FFF7A4FE85ED010A0120F8BD0020F8BD70
:1010C000001C0020240000200000C8420EB564234C
:1010D0008DE80E0002460123EC21044800F092FD49
:1010E00008B100200EBD01200EBD000090000020C0
:1010F00070B506460D469806010E1446F52000F020
:101100001BF800280AD0680140EA84003043C1B2CD
:10111000F42000F011F8002800D0012070BD10B5B7
:10112000B621E02000F008F8002803D0642000F089
:10113000D5FA012010BD000003B583B0642301225D
:1011400004A98DE80E0013460246EC21044800F085
:101150000BFE10B1002005B000BD0120FBE7000030
:1011600090000020FEE70000014800F0B1B9000047
:10117000D0030020014800F0ABB90000300400208B
:10118000014800F0A5B9000010030020014800F05C
:101190009FB900007003002010B501680E4CCAB260
:1011A0001423083AA14203D2B2FBF3F20B4904E044
:1011B000B2FBF3F209492031921D436C02F01F0289
:1011C00023F003031944816404498031C16401217F
:1011D0009140016510BD0000080402400008024073
:1011E0000179084A01F07F0102EB81024265054A5C
:1011F0004432491E826501F01F0201219140C16500
:1012000070470000FC08024030B5D0E91345656026
:10121000446D14B1D0E91645656090F8444004F07F
:101220001F050124AC40056C6C6004686360836832
:10123000102B036803D099600068C26030BD9A60CB
:101240000068C16030BD0000DFED100A642280EE4E
:10125000201AFDEEC10A10EE901A4A4300EE902AC1
:101260005328F8EEE00A30EE600ADFED090A80EE5E
:10127000201A00EE901AB8EEE00A31EE000A01D012
:10128000572801D1B1EE400A704700000000C84263
:1012900000007042704772B6FEE700002DE9F0478B
:1012A00005462DED028BA0B0DFED498A4FF04E0AC6
:1012B0004FF04509B0EE688A46A1FFF72FF8040009
:1012C00005D146A12846FFF729F804007BD00A2162
:1012D000FFF736F840B90D212046FFF731F818B96D
:1012E0002046FFF737F82044051B802D00DB7F25C3
:1012F0002A4621466846FEF7EDFF002168460DF8B4
:101300000510884602E000BF00F805806D1E02D47B
:10131000415D0D29F8D0334F044600262C2120468C
:10132000FFF70EF8050001D085F80080B01E0528F3
:101330002CD2DFE800F0030F131F2300207828B31E
:10134000204604F0B9FE51EC100BFFF7A5F808EEAB
:10135000900A1BE02078C8B1824617E02078A8B137
:10136000204604F0A9FE51EC100BFFF795F808EEAB
:10137000100A0BE0207848B1814607E0207828B1B8
:10138000312801D0322801D10120F8701DB16C1C28
:10139000761C062EC2DDF5EEC08AF1EE10FA06D0FC
:1013A0005046B0EE680AFFF74FFF87ED130AB5EE1F
:1013B000C08AF1EE10FA06D04846B0EE480AFFF7B0
:1013C00043FF87ED120A20B0BDEC028BBDE8F08729
:1013D0000000000024474E47474100002447504783
:1013E000474100002800002010B5002140B190F8CE
:1013F00025300122022B05D00421C163012124E004
:10140000012010BD03681C6824F001041C600368FF
:101410001C6824F00E041C60836C1C6824F4807427
:101420001C6090F84430046C03F01F0302FA03F3CD
:101430006360D0E913345C60436D33B11C6824F4FD
:1014400080741C60D0E916345C6080F8252000228E
:1014500080F82420084610BD70B590F8252000249F
:1014600001212346022A07D00422C26380F82510F6
:1014700080F82430012429E00268156825F0010570
:1014800015600268156825F00E051560826C1568F8
:1014900025F48075156090F84420056C02F01F0259
:1014A00001FA02F26A60D0E913255560426D32B14B
:1014B000156825F480751560D0E91625556080F80B
:1014C000251080F82430816B01B18847204670BD1B
:1014D000F0B4016C0C6801680D6890F8442002F0CB
:1014E0001F06042202FA06F3234211D06B070FD520
:1014F0000B689B0603D40B6823F004030B6090F881
:10150000441001F01F018A40016C4A60016B1DE02C
:10151000022303FA06F727424FF0000C4FF00102B6
:1015200018D0AF0716D50C68A40605D40C6824F0B3
:101530000A040C6080F8252090F8441001F01F0187
:101540008B40016C4B6080F824C0C16A00291AD01E
:10155000F0BC08470823B340234214D02B0712D510
:101560000B6823F00E030B6090F84410036C01F03D
:101570001F0102FA01F15960C26380F8252080F84A
:1015800024C0416BE2E7F0BC7047000070B5040076
:101590000CD02C4A21681420914209D22A4A0A44CC
:1015A000B2FBF0F08000606428480AE0012070BDC2
:1015B000244A52420A44B2FBF0F0800060642148A1
:1015C00008382064022084F825000A6847F6F07085
:1015D0008243D4E902031843D4E904352B4318436A
:1015E000A3691843E3691843236A1843104308604A
:1015F0002046FFF7D1FDA0680025B0F5804F00D14F
:1016000065602079A16C00F07F000860D4E91301C7
:1016100041606068401E032808D82046FFF7E0FDBF
:10162000606D0560D4E91601416002E06565A5655D
:10163000E565E563012084F8250084F82450002046
:1016400070BD000008040240F8FFFDBF000002402A
:1016500070B5044690F82400002501280CD0012024
:1016600084F8240094F825600020012E06D084F828
:1016700024000225284670BD022070BD022684F891
:101680002560E0632068066826F0010606602046B3
:10169000FFF7BAFD206B00282068016802D041F0F6
:1016A0000E0106E021F0040101602068016841F0AC
:1016B0000A010160A06C0168C90303D5016841F407
:1016C00080710160606D18B1016841F48071016042
:1016D0002068016841F001010160CBE770B5044664
:1016E00000F032F90546601C02D00448406804440A
:1016F00000F02AF9401BA042FAD370BD0000002080
:101700002DE9F04FDFF80C92002301260325A9F103
:10171000040B85B00F2709F1040AABF1040EF1E0C8
:1017200006FA03FC12EA0C027ED00C7904F00304E2
:10173000012C01D0022C20D1846800945C0005FAB1
:1017400004F80494009C24EA08040094D1F80C8066
:10175000049C08FA04F8009C48EA0408C0F80880D1
:10176000446824EA0C0491F804C0CCF3001C0CFA81
:1017700003FC4CEA040CC0F804C00C79E443A40751
:1017800002D18C68012C0ED0C4684FEA430805FAD8
:1017900008FC24EA0C04D1F808C00CFA08FC4CEA56
:1017A000040CC0F80CC00C7904F00304022C16D110
:1017B000DC0800EB840CCDF808C0DCF820C05C0726
:1017C0004FEAD46807FA08F42CEA040C0C6904FA0E
:1017D00008F444EA0C04DDF808C0CCF820400468A2
:1017E0004FEA430805FA08FC24EA0C0491F804C007
:1017F0000CF0030C0CFA08FC4CEA040CC0F800C016
:101800004C6814F4403F7CD0434CD4F860C04CF09A
:10181000010CC4F860C0246E23F0030C04F0010432
:1018200000943E4C644400E06BE00294A4684FEAEC
:10183000837C4FEA1C7807FA08FC24EA0C04B0F118
:10184000904F06D0DFF8D8C0604505D14FF0010CAD
:1018500020E04FF0000C1DE0DFF8C8C0604502D169
:101860004FF0020C16E0DFF8C0C0604502D14FF027
:10187000030C0FE0DFF8B4C0604502D14FF0040C58
:1018800008E0DFF8ACC0604502D14FF0050C01E084
:101890004FF0060C0CFA08FC4CEA040C029CC4F84D
:1018A00008C0D9F80040CC46D1F8048094435FEAE0
:1018B000C82800D51443CCF80040DAF80040D446DC
:1018C000D1F8048094435FEA882800D51443CCF80B
:1018D0000040DBF80040DC46D1F8048094435FEA26
:1018E000883800D51443CCF80040DEF80040F446B8
:1018F000D1F8048094435FEAC83800D51443CCF88B
:1019000000405B1C0C682246DC407FF409AF05B048
:10191000BDE8F08F080401400010024000000140C3
:101920000004004800080048000C0048001000486F
:10193000001400480069084000D0012070470AB137
:10194000816170478162704701488068704700007C
:101950000000002090F84120202A24D190F8402057
:10196000012A20D0012280F84020242280F8412042
:101970000268136823F0010313600268136823F4FC
:1019800080531360026813680B43136001680A6890
:1019900042F001020A60202180F84110002180F805
:1019A0004010084670470220704790F84120202AD6
:1019B00022D190F84020012A1ED0012280F8402038
:1019C000242280F841200268136823F00103136089
:1019D0000268136823F4706343EA0121116001680F
:1019E0000A6842F001020A60202180F841100021BB
:1019F00080F84010084670470220704770B5040018
:101A000004D094F84100002510B106E0012070BD1B
:101A100084F84050204600F053FA242084F8410016
:101A20002068016821F0010101606068216820F0F0
:101A3000706008612068816821F400418160E0687D
:101A40000128A06830D040F4044021688860E06834
:101A50000228206841682AD021F400614160206892
:101A60004168144A114341602068C16821F4004173
:101A7000C160D4E904010843A16940EA012021685A
:101A8000C860D4E90701084321680860206801683C
:101A900041F0010101606564202084F84100256364
:101AA00084F84250002070BD40F40040CDE741F47E
:101AB0000061D3E7008000022DE9FF4F81B00446AA
:101AC00090F84100DDF838B01F46904620287BD1C1
:101AD00094F84000012877D0012084F84000FFF7F7
:101AE00033FF0646012200901923D103204602F05D
:101AF00057FB002853D1212084F84100102084F89E
:101B0000420000256564C4F8248067856563608DA4
:101B10003A49FF274FF080794FF0007AFF2802D929
:101B200027854B4605E0608D208500045346000C58
:101B300010D0226898F800009062606A401C6062D1
:101B4000608D401E6085208D401E2085401CC2B2E5
:101B5000009101E0002200912046029902F008FB6A
:101B600014E000BF02F084FBC8B9606A2168007805
:101B70008862606A401C6062608D401E6085208DB6
:101B8000401E80B22085618D01B160B1608D32460A
:101B9000002859462046E5D102F03FFBE0B1012084
:101BA00005B0BDE8F08F5B460022802120460096FC
:101BB00002F0F6FA0028F2D1608DFF2805D92785BA
:101BC0003A464B460095C7E716E0608D20850095A4
:101BD00094F828205346BFE721682020C861216877
:101BE0004A68074B1A404A6084F8410084F8425022
:101BF00084F840500020D3E70220D1E70020008085
:101C000000E800FE2DE9FF4F83B00446DDE91087B0
:101C100090F84100DDF848909A469346202874D108
:101C20005FEA080014D09FB194F8400001286CD0FE
:101C3000012084F84000FFF787FE0646012200904D
:101C40001923D103204602F0ABFA002871D103E03A
:101C50004FF4007060646CE0222084F84100402062
:101C600084F8420000256564C4F8248067856563B4
:101C7000CDE9009653465A462046049902F014FADC
:101C800010B184F8405054E0618D3548FF274FF083
:101C900080784FF0007AFF2904D927853A464346D9
:101CA000009005E0618D2185009094F8282053462E
:101CB0002046049902F05CFA4B460022042120469B
:101CC000009602F06DFAA0BB2068406A616A087055
:101CD000606A401C6062208D401E81B22185608D4B
:101CE000401E6085608DD8B1D1B94B46002280215D
:101CF0002046009602F054FAD8B9608DFF2805D925
:101D000027853A464346009506E026E0608D20850B
:101D1000009594F8282053462046049902F028FAAA
:101D2000608D0028C8D132464946204602F075FA37
:101D300018B1012007B0BDE8F08F21682020C861EC
:101D400021684A68074B1A404A6084F8410084F8C9
:101D5000425084F840500020ECE70220EAE70000FF
:101D60000024008000E800FE2DE9FF4F83B0044608
:101D7000DDE9108790F84100DDF848909A469346D7
:101D8000202871D15FEA080014D09FB194F8400078
:101D9000012869D0012084F84000FFF7D5FD0646F0
:101DA000012200901923D103204602F0F9F90028FE
:101DB0006ED103E04FF40070606469E0212084F884
:101DC0004100402084F8420000256564C4F8248066
:101DD00067856563CDE9009653465A4620460499C7
:101DE00002F094F910B184F8405051E0608DFF2763
:101DF0004FF080784FF0007AFF2804D927853A46C3
:101E00004346009505E0608D2085009594F82820D4
:101E100053462046049902F0ABF932464946204623
:101E200002F026FAA0BB606A216800788862606AC6
:101E3000401C6062608D401E6085208D401E80B217
:101E40002085618DD9B1D0B94B4600228021204632
:101E5000009602F0A5F9D8B9608DFF2805D927852D
:101E60003A464346009506E026E0608D20850095C1
:101E700094F8282053462046049902F079F9608DA1
:101E80000028CAD132464946204602F0C6F918B1A8
:101E9000012007B0BDE8F08F20682021C1612068D3
:101EA0004268064B1A40426084F8411084F8425060
:101EB00084F840500020ECE70220EAE700E800FE4A
:101EC0002DE9F04397B0044614216846FEF71BFA4B
:101ED000442105A8FEF717FA3E4920683E4C122619
:101EE000042700254FF090494FF08008884235D1F3
:101EF000402005900B9505A800F06EF908B1FFF79A
:101F0000CAF9E06C40F00100E064E06C00F0010010
:101F10001690E06C40F00200E064E06C694600F06E
:101F2000020016904FF400400090CDE90165CDE924
:101F300003574846FFF7E4FBCDF80080CDE9016583
:101F4000CDE9035769462548FFF7DAFBA06D40F459
:101F50000010A065A06D00F4001037E02049884211
:101F600035D105A8CDF814800C9500F035F908B1ED
:101F7000FFF791F9E06C40F00400E064E06C00F0E1
:101F800004001690E06C40F00100E064E06C6946EB
:101F900000F00100169010200090CDE90165CDE918
:101FA00003571048FFF7ACFB4FF480700090CDE969
:101FB0000165CDE9035769464846FFF7A1FBA06DCF
:101FC00040F48000A065A06D00F48000169017B06A
:101FD000BDE8F083005400400010024000040048B7
:101FE00000580040000800480248816842681144D7
:101FF000816070470000002010B50024032000F02D
:1020000073F80F2000F008F808B1012401E000F097
:1020100025F8204610BD000070B50E4E0546002480
:10202000706898B14FF47A71B1FBF0F00A49096811
:10203000B1FBF0F001F0C7F840B9102D06D2002234
:102040002946501E00F030F8356000E0012420469B
:1020500070BD0000000000200C0000200A4882B083
:10206000016E41F001010166016E01F00101009174
:10207000816D41F080518165806D00F0805000904D
:1020800002B000F0A1B8000000100240002809DBF7
:1020900000F01F02012191404009800000F1E02082
:1020A000C0F8001170470000F0B40E4B1B680C46DE
:1020B000C3F30223C3F10705042D00D90425191D1C
:1020C000072901D2002300E0DB1E012606FA05F1F4
:1020D000491E214099409E40761E16403143F0BC77
:1020E00003F0DABF0CED00E0064900F007020868D3
:1020F0004FF6FF03184040EA0220034A10430860ED
:10210000704700000CED00E00000FA052B492C4B55
:102110000A6832214A432B4940B1B0F5007F086874
:1021200029D020F4C06040F480602CE00868C0F33F
:102130004120022804D051F8800F20F4807022E062
:10214000D1F8800020F48070C1F88000086820F485
:10215000C06040F400700860B2FBF3F0401C00E087
:10216000401E4A69520501D50028F9D14869400549
:102170000AD503207047C0F34120022806D051F849
:10218000800F40F48070086000207047D1F8800014
:1021900040F48070C1F88000086820F4C06040F40A
:1021A00000700860B2FBF3F0401C00E0401E4A697A
:1021B0005205DBD50028F9D1D8E700000C0000203B
:1021C00040420F00007000400248816841F48041A5
:1021D00081607047007000402DE9F84304460068B4
:1021E00000269D4D00035ED5A86D0027C00008D4D1
:1021F000A86D40F08050A865A86D012700F08050C0
:102200000090DFF85892D9F8001041F48071C9F8B5
:102210000010FFF799FB804606E000BFFFF794FB34
:10222000A0EB080002282BD8D9F80000C005F5D58E
:10223000D5F8900010F4407014D0216C814211D078
:10224000D5F89000D5F8901020F4407041F480311A
:10225000C5F89010D5F8901021F48031C5F8901091
:10226000C5F89000C00711D0FFF76EFB804641F221
:10227000883907E0FFF768FBA0EB0801494501D961
:1022800003260BE0D5F890008007F3D5D5F8900031
:10229000216C20F440700843C5F890001FB1A86D70
:1022A00020F08050A8652078C00707D0D5F88800B6
:1022B000616820F003000843C5F888002078800793
:1022C00007D5D5F88800A16820F00C000843C5F8B0
:1022D00088002078400707D5D5F88800E16820F00D
:1022E00030000843C5F888002078000707D5D5F8E6
:1022F0008800216920F0C0000843C5F888002078D4
:10230000800607D5D5F88800616920F4406008434D
:10231000C5F888002078400607D5D5F88800A1695F
:1023200020F440500843C5F888002078000607D5FF
:10233000D5F88800E16920F440400843C5F88800DA
:102340002088C00507D5D5F88800216A20F44030E0
:102350000843C5F888002088800507D5D5F888008F
:10236000616A20F440200843C5F8880020884005B1
:102370000FD5D5F88800A16A20F440100843C5F8AD
:102380008800A06AB0F5801F03D1E86840F480108F
:10239000E860208800050FD5D5F88800E16A20F4B0
:1023A00040000843C5F88800E06AB0F5800F03D10B
:1023B000E86840F48010E8602088C0040FD5D5F8A4
:1023C0008800216B20F040700843C5F88800206B1E
:1023D000B0F1807F03D1E86840F48010E860208885
:1023E0004FF0006180040ED5D5F88800626B20F0B4
:1023F00040601043C5F88800606B884203D1E868EC
:1024000040F48010E860208840040ED5D5F888009C
:10241000A26B20F040601043C5F88800A06B884292
:1024200003D1E86840F48010E860208800040FD5EC
:10243000D5F88800E16B20F040500843C5F88800CB
:10244000E06BB0F1805F03D1E86840F48030E86071
:102450003046BDE8F88300000010024000700040E4
:102460002DE9F0470E4605004FF0000725D0DFF8B4
:10247000AC81D8F8000000F00F00B0420CD2D8F8C0
:10248000001021F00F013143C8F80010D8F8000007
:1024900000F00F00B04210D12968614CC80741F22A
:1024A000883A5AD06868DFF87C91032808D002285F
:1024B00020682DD0400500282CDB0120BDE8F087E6
:1024C00020688001F9D5E06800F00302E068C0F3FD
:1024D0000310401C032A19D0534A00BFB2FBF0F08E
:1024E000E268C2F306225043E268C2F34162521C22
:1024F0005200B0FBF2F0484517D9A06810F0F00F79
:102500000CD0880711D5A86840B10EE0474AE5E72E
:102510008003D0E700F0B6F8484506D9A06820F05F
:10252000F00040F08000A0608027A068696820F07B
:1025300003000843A060FFF707FA814606E000BFEA
:10254000FFF702FAA0EB090151453AD8A068696883
:1025500000F00C00B0EB810FF2D12868810714D590
:10256000400703D5A06840F4E060A0602878000729
:1025700005D5A06820F4605040F4E060A060A06839
:10258000A96820F0F000084304E0802F03D1A06880
:1025900020F0F000A060D8F80010404601F00F01D4
:1025A000B14216D9016821F00F0131430160FFF7F4
:1025B000CBF9074607E000BFFFF7C6F9C11B51453D
:1025C00001D903207AE7D8F8000000F00F00B042EC
:1025D000F2D12878400705D5A068E96820F4E060CA
:1025E0000843A0602878000706D5A068296920F470
:1025F000605040EAC100A06000F044F8A1680C4AB5
:10260000C1F30311515C01F01F01C8400949086082
:1026100009480068BDE8F047FFF7FEBC0020024013
:102620000010024000B4C4040024F40000366E011F
:10263000D87800080C00002000000020054806495A
:1026400000688968054AC1F30221515C01F01F014D
:10265000C84070470C00002000100240E8780008D5
:102660000548064900688968054AC1F3C221515CE2
:1026700001F01F01C84070470C000020001002400C
:10268000E8780008184910B58868C0F38102174837
:10269000012A0BD08A68164BC2F38102022A06D0A7
:1026A0008A68C2F38102032A03D0002010BD1846B5
:1026B00010BDCA6802F00304CA68C2F30312521CB8
:1026C000032C02D0B0FBF2F001E0B3FBF2F0CA68D9
:1026D000C968C2F306225043C1F34161491C490055
:1026E000B0FBF1F010BD0000001002400024F40027
:1026F00000366E012DE9F84304007AD02078F84DB9
:10270000C00747D0A868E96800F00C0001F0030199
:102710000C2802D0082817D001E0032914D06068E3
:10272000B0F5803F17D0B0F5A02F286817D020F45F
:1027300080302860286820F4802028606068E0B13C
:10274000FFF702F9064614E02868800322D5606886
:102750000028D2D01EE0286840F48030EDE740F435
:1027600080202860F7E700BFFFF7EEF8801B6428A1
:1027700070D828688003F7D50CE0FFF7E5F8064627
:1027800005E000BFFFF7E0F8801B6428F0D8286858
:102790008003F7D4207880074CD5A868E96800F05A
:1027A0000C0001F003010C2802D004280DD001E038
:1027B00002290AD0E068002828682BD040F48070F5
:1027C0002860FFF7C1F8064619E02868400502D5E1
:1027D000E068002891D06868217C20F0FE4040EA43
:1027E00001606860BF480068FFF716FC002800D150
:1027F00020E072E1FFF7A8F8801B0228B8D828680B
:102800004005F7D56868217C20F0FE4040EA016071
:1028100068600FE020F480702860FFF795F80646A6
:1028200005E000BFFFF790F8801B0228A0D82868B9
:102830004005F7D42078000729D560690028D5F82D
:10284000940013D040F00100C5F89400FFF77CF825
:10285000064606E090E000BFFFF776F8801B0228EE
:1028600086D8D5F894008007F6D510E020F0010056
:10287000C5F89400FFF768F8064604E0FFF764F82F
:10288000801B022878D8D5F894008007F6D42078E9
:10289000400761D5A86D0026C00008D4A86D40F09F
:1028A0008050A865A86D012600F0805000908E48E9
:1028B0000168C90511D40168804641F48071016046
:1028C000FFF742F8074604E0FFF73EF8C01B022876
:1028D00052D8D8F80000C005F6D5A068012815D058
:1028E0000528D5F8900016D020F00100C5F890001A
:1028F000D5F8900020F00400C5F89000A06841F2DF
:102900008838B8B1FFF720F807460EE0D5F89000F8
:1029100040F00100F0E740F00400C5F89000F5E752
:10292000FFF712F8C11B414526D8D5F89000800763
:10293000F6D50CE0FFF708F8074604E0FFF704F8C7
:10294000C11B414518D8D5F890008007F6D41EB1B8
:10295000A86D20F08050A8652078800629D5A06950
:102960000028D5F8980013D040F00100C5F8980071
:10297000FEF7EAFF064606E075E000BFFEF7E4FF5B
:10298000801B02286FD8D5F898008007F6D510E094
:1029900020F00100C5F89800FEF7D6FF064604E0D7
:1029A000FEF7D2FF801B02285DD8D5F8980080077B
:1029B000F6D4E069F0B3A968C1F3810103295DD0C1
:1029C0000228286820F08070286003D0FEF7BCFF42
:1029D00004464BE0FEF7B8FF064604E0FEF7B4FFFE
:1029E000801B02283FD828688001F7D4F4E9080149
:1029F0006FF00F0202EB01110843218A52044908CB
:102A000002EB4151A26841EA02210843217D4FF0C7
:102A10007E42490802EB41610843217B40EAC160E4
:102A2000E968324A11400843E860286840F0807045
:102A3000286000E05EE0E86840F08070E860FEF743
:102A400083FF044605E000BFFEF77EFF001B02285F
:102A500009D828688001F7D54CE000BFFEF774FF65
:102A6000001B022802D90320BDE8F88328688001F2
:102A7000F4D4E8681E490840E8603BE00128F3D040
:102A8000E868226A00F00301914226D1616A00F0F1
:102A9000F0020901103991421FD1A26A00F4FE41EF
:102AA000B1EB022F19D194F82C2000F07841B1EB52
:102AB000C26F12D1218E00F4C00249084905A1F568
:102AC0000011914209D194F8341000F0C060490817
:102AD0004906A1F1007181420CD00120C4E7000039
:102AE0000010024000000020007000400C809F0198
:102AF000FCFFEEFE0020B7E770B5040009D0606A65
:102B0000002540B125616561A56294F85D0040B182
:102B10000CE0012070BD6068B0F5827FF4D0E56103
:102B2000F2E784F85C50204600F05CF8022084F85C
:102B30005D002068016821F040010160E1684FF408
:102B4000E062914201D9002001E04FF48050B1F5DC
:102B5000706F02D0914200D0A562A188228901F451
:102B6000827102F404421143227C02F002021143FA
:102B7000227D02F001021143228B02F40072114304
:102B8000227F02F03802114394F8202002F08002E4
:102B90001143228D02F40052114322681160A16991
:102BA000042202EA114194F8242000F4805002F03B
:102BB0001002114394F8342002F008021143A28954
:102BC00002F4706211430143206841602068C169CA
:102BD00021F40061C1612566012084F85D000020B8
:102BE00070BD000010B586B0044614216846FDF79C
:102BF0008AFB1249206888421ED11148816D41F438
:102C000080418165816D01F480410591C16C41F085
:102C10000201C164C06C002100F0020005904FF475
:102C2000604000900220CDE901010390052004904E
:102C300069460448FEF764FD06B010BD0038004048
:102C400000100240000400482DE9F84F044690F8B7
:102C50005D001D4616460F4601283FD1002F75D056
:102C6000002E73D060684FF00408B0F5827F01D168
:102C7000A06848B3FEF768FE824694F85C0001281D
:102C80002CD04FF0010984F85C9084F85D804FF0FF
:102C90000008C4F860802764A4F84460A4F8466083
:102CA000C4F83880A4F83C80A4F83E80C4F84C8076
:102CB000C4F85080E0684FF4E061884220684268C0
:102CC0000ED922F480520DE084F85D800093134603
:102CD0000A46204600F03EF9BDE8F88F0220FBE7E7
:102CE00042F480524260A068B0F5004F09D12068DC
:102CF000026822F0400202602068026822F48042EA
:102D0000026020680268520603D4026842F0400262
:102D10000260E06888421BD939E020688168C907F1
:102D20000BD0017B206C0170206C401C2064B4F837
:102D30004600401EA4F846000AE0FEF705FEA0EBA0
:102D40000A00A84203D3681C02D036E032E09DB3EB
:102D5000B4F846000028E0D11DE020688168C9076A
:102D60000BD0C068216C0880206C801C2064B4F8F3
:102D70004600401EA4F8460009E0FEF7E5FDA0EB82
:102D80000A00A84202D3681C01D016E0A5B1B4F82D
:102D900046000028E1D152462946204602F06FF94C
:102DA00008B12020206684F85D9084F85C80206E55
:102DB000002891D001208FE7FFE784F85D9084F828
:102DC0005C80032088E72DE9F84F984616468A462E
:102DD0000446FEF7B9FD814694F85D00012820D134
:102DE000BAF1000F6FD0002E6DD094F85C0001286E
:102DF00017D0012784F85C70032084F85D0000255B
:102E00002566C4F838A0A687E6872564A4F8445050
:102E1000A4F846502565E564A068B0F5004F03D0DE
:102E20000CE00220BDE8F88F2068016821F0400125
:102E300001602068016841F48041016020680168F8
:102E4000490603D4016841F040010160E068B0F533
:102E5000E06F606826D908B1012E1FD1A06B2168F0
:102E60000088C86006E020688168890709D5A16BE1
:102E70000988C160A06B801CA063E08F401EE087C2
:102E80000CE0FEF761FDA0EB0901414503D3B8F169
:102E9000FF3F03D04BE0B8F1000F48D0E08F00288F
:102EA000E1D139E008B1012E33D1E08F0128A06BC8
:102EB00003D921680088C86010E021680078087391
:102EC00014E0E08725E043E020688168890713D596
:102ED000E18F0129A16B07D90988C160A06B801C13
:102EE000A063E08F801EECE709780173A06B401CA3
:102EF000A063E08F401EE4E7FEF726FDA0EB09018A
:102F0000414503D3B8F1FF3F03D010E0B8F1000F03
:102F10000DD0E08F0028D7D14A464146204602F026
:102F2000E8F808B120202066A06830B109E084F8F4
:102F30005D7084F85C50032074E72068C168806885
:102F4000009084F85D7004F85C5F60680028F3D03E
:102F5000012067E72DE9FF5F1D46934604464FF0C9
:102F600001090E9EFEF7F0FC074694F85D006168CB
:102F7000012806D0B1F5827F39D1A168B1BB042800
:102F800035D1019800287CD0BBF1000FFBD0002D7B
:102F9000F9D094F85C00012829D04FF0010A84F898
:102FA0005CA094F85D00042802D0052084F85D0040
:102FB0004FF00008C4F86080C4F840B0A4F8465050
:102FC000A4F844500199A163E587A587C4F84C8013
:102FD000C4F85080E0684FF4E061884201D8012DC8
:102FE00009D92068426822F4805208E0FFE70220F5
:102FF00004B0BDE8F09F2068426842F4805242600D
:1030000020680268520603D4026842F0400202605F
:10301000E0688842606846D908B1012D3BD1A06BB9
:1030200001882068C160A06B801CA063E08F401EF7
:10303000E08730E02068816889070FD5E18F69B1AA
:10304000B9F1010F0AD1A16B0988C160A06B801C86
:10305000A063E08F401EE0874FF000092068816880
:10306000C90711D0B4F8461071B1C068216C08804E
:10307000206C801C2064B4F84600401EA4F8460072
:1030800000E09EE04FF00109FEF75EFCC01BB0427D
:1030900001D3701C74D1E08F0028CBD1B4F8460066
:1030A0000028C7D175E008B1012D6BD1E08F012850
:1030B000A06B08D921680088C860A06B801CA06341
:1030C000E08F801E07E0216800780873A06B401C29
:1030D000A063E08F401EE08754E020688168890784
:1030E0001AD5E18FC1B1B9F1010F15D1E18F0129D5
:1030F000A16B07D90988C160A06B801CA063E08F19
:10310000801E06E009780173A06B401CA063E08F6D
:10311000401EE0874FF0000920688168C90728D069
:10312000B4F8461029B3B4F84610012914D9C06880
:10313000216C0880206C801C2064B4F84600801E3E
:10314000A4F84600B4F84600012810D82068416869
:1031500041F4805141600AE0007B216C0870206CD2
:10316000401C2064B4F84600401EA4F846004FF00E
:103170000109FEF7E9FBC01BB04202D3701C01D06D
:1031800012E08EB1E08F0028A7D1B4F846000028E5
:10319000A3D13A463146204601F0ABFF50B1202082
:1031A000206684F85C800CE084F85DA084F85C8084
:1031B00003201DE784F85DA084F85C80206E002861
:1031C000F7D0012014E710B5401EB0F1807F01D385
:1031D000012010BD4FF0E02460610F21601702F064
:1031E0005BFF0020A06107202061002010BD704718
:1031F000704770477047704770470000F0B590F80F
:103200003C20012A3AD0012580F83C50022280F867
:103210003D2003685A689C68194E1A4FB34201D08A
:10322000BB4204D122F4700C4A6842EA0C02DFF877
:1032300058C002EA0C02D1F800C04CEA020CC3F8F4
:1032400004C00268B2420DD0B2F1804F0AD00F4BD9
:103250009A4207D00E4B9A4204D0BA4202D00D4B8C
:103260009A4204D1896824F080031943916080F860
:103270003D50002180F83C100846F0BD0220F0BD12
:10328000002C0140003401408FFFFFFD000400408E
:103290000008004000400140704710B5040003D012
:1032A00094F83D0010B107E0012010BD002084F823
:1032B0003C00204600F022F8022084F83D00211D49
:1032C000206802F057F9012084F8480084F83E0095
:1032D00084F83F0084F8400084F8410084F84200FC
:1032E00084F8430084F8440084F8450084F84600DC
:1032F00084F8470084F83D00002010BD08B5006840
:10330000B0F1804F12D10A48816D41F00101816511
:10331000806D002200F00100009011461C20FEF795
:10332000C3FEBDE808401C20FEF7B0BE08BD00008B
:103330000010024090F83D10012901D00120704793
:10334000022180F83D100168CA6842F00102CA609B
:103350000068104988420ED0B0F1804F0BD00E4962
:10336000884208D00D49884205D00D49884202D0D4
:103370000C49884207D181680B4A1140062906D0C2
:10338000B1F5803F03D0016841F0010101600020E8
:1033900070470000002C014000040040000800407D
:1033A00000340140004001400700010070B50446B0
:1033B00090F83C000025012814D0012684F83C60D8
:1033C000022084F83D0022689068364B184020F4B3
:1033D0007F409060086870282ED010DC10F00F0F2E
:1033E00003D021E04FF0020070BD4FEA2012072AFF
:1033F0001AD2DFE802F0525252524A3840002A4BA9
:10340000C21A984249D009DCB0F5805F0DD0B0F502
:10341000005F1CD0B0F1101F06D13EE0102A3CD056
:10342000202A3AD0502A38D0012584F83D60002067
:1034300084F83C00284670BDCB68D1E901212068A2
:1034400002F0F4F82068816841F0770109E0CB6868
:10345000D1E90121206802F0E9F82068816841F48F
:1034600080418160E1E7CA684968206802F0F2F8AB
:103470005021206806E0CA684968206802F018F9FF
:103480006021206802F0DCF8CFE7CA68496820684C
:1034900002F0E0F840212068F4E722680146104677
:1034A000F0E7000088FFCEFF2000100070472DE9F4
:1034B000F04104460068C66805694FF00007A90797
:1034C00013D5B10711D5F91E0161012020772068BD
:1034D00080698007204602D0FFF7E8FF04E000F093
:1034E000B7F8204600F0B5F82777680716D57007BB
:1034F00014D521686FF0040008610220207720684D
:10350000806910F4407F204602D0FFF7CFFF04E02F
:1035100000F09EF8204600F09CF82777280715D584
:10352000300713D521686FF0080008610420207768
:103530002068C0698007204602D0FFF7B7FF04E08B
:1035400000F086F8204600F084F82777E80616D5C4
:10355000F00614D521686FF010000861082020776C
:103560002068C06910F4407F204602D0FFF79EFF1C
:1035700004E000F06DF8204600F06BF82777E807CC
:1035800008D0F00706D021686FF0010008612046DE
:1035900000F060F8280601D4A80408D5300606D546
:1035A00021686FF4025008612046FFF721FEE8050C
:1035B00008D5300606D521686FF480700861204672
:1035C000FFF715FE680608D5700606D521686FF06E
:1035D00040000861204600F065F8A80608D5B0064E
:1035E00006D521686FF0200008612046FFF701FE34
:1035F000E80208D5F00206D521686FF48010086152
:103600002046FFF7F8FDA80208D5B00206D52168CC
:103610006FF4001008612046FFF7ECFD680208D542
:10362000700206D521686FF4800008612046FFF71C
:10363000E3FD28020AD5300208D521686FF40000A6
:1036400008612046BDE8F041FFF726BEBDE8F081E5
:103650007047704710B50068B0F1804F1ED1104818
:10366000016A491C0162016A0A22B1FBF2F302FB02
:103670001312012102B90182026A6423B2FBF3F43E
:1036800003FB142202B90170026A4FF4FA73B2FB11
:10369000F3F403FB1422002A00D1C18110BD000005
:1036A00028000020704790F88410012918D00121CB
:1036B00080F884102421C0F8881001680A680B681B
:1036C00023F001030B6022F00051002242660368E0
:1036D00019602021C0F8881080F8842010467047B7
:1036E0000220704710B50446D0F88C00202801D085
:1036F000022010BD61B15AB10120E06600202067B0
:10370000204602F0E3FA0028F3D1E16E012901D04E
:10371000012010BD226810211162226852E8001FAA
:1037200041F0100142E80013002BF6D110BD00005B
:103730002DE9F04F0D4600685B49C1B04FF000091C
:10374000884215D1FF2D00D3FF252A4657496846E8
:10375000FCF7C0FD68460DF80590FDF79FFD4FF49E
:10376000007252495248FFF7BDFF41B0BDE8F08FEB
:1037700050498842F9D100244F4E4FF0010BDFF839
:103780003CA15EE0641CA4B2AC4204D2305D0D28C2
:10379000F8D00A28F6D0AC4255D2204601E0641C8D
:1037A000A4B2AC4204D2315D0D2901D00A29F6D170
:1037B000211A0A04120C44D0315C3044521E401CC1
:1037C00097B2692904D0672905D0742939D120E03E
:1037D0008AF80AB035E0DAF84C00FCF74AFE0746F2
:1037E0008846DAF84800FCF744FE41EC100BCDE9BE
:1037F000007853EC102B32A102A802F039FC02A889
:10380000FCF7A8FD82B2642302A9314800F058FBFE
:1038100017E0B7B1082F05D381783A2902D1417951
:103820003A2919D0FF2F00D9FF2701463A462948E7
:10383000FCF750FD274901F80790AAF81C908AF878
:1038400007B0AC42A0D341B04FF48072BDE8F04F56
:1038500019491F48FFF746BF144902685839092F14
:103860008A644268CA6401F1480282F8089002D969
:10387000017A202907D01149583181F8009000BF02
:103880008AF808B0DDE7093FBFB2072F00D9072744
:1038900000F1090109483A465830FCF71BFD074979
:1038A000583101F80790EBE700380140701D002007
:1038B000E801002000440040701F00202800002084
:1038C00067252E36662C252E36660D0A0000000070
:1038D0007C020020601C0020704770B5044690F800
:1038E000840001281DD0012084F884002420C4F81D
:1038F000880020680568026822F0010202602068E2
:10390000826822F060620A438260204601F0F0FE85
:10391000206805602020C4F88800002084F8840016
:1039200070BD022070BD70B5044690F88400012877
:103930001DD0012084F884002420C4F88800206869
:103940000568026822F0010202602068826822F0A5
:1039500060420A438260204601F0CAFE206805608A
:103960002020C4F88800002084F8840070BD022064
:1039700070BD7047704770472DE9F04103680446F9
:10398000D86919689A6840F60F0528424FF000057B
:103990004FF002060AD187067ED501F0200702F01B
:1039A000805C57EA0C0777D0616F42E1B64FDFF8D1
:1039B000DCC2174001EA0C0C57EA0C0C6CD05FEA31
:1039C000C07C0CD05FEAC15C09D54FF0010CC3F894
:1039D00020C0D4F8903043F00103C4F8903083073E
:1039E00009D5D30707D023681E62D4F8903043F07E
:1039F0000403C4F8903043070AD5D30708D02668DB
:103A000004233362D4F8903043F00203C4F89030BA
:103A100003070CD501F020033B4308D02668082398
:103A20003362D4F8903043F00803C4F890300305B3
:103A30000BD54B0109D526684FF400633362D4F8E7
:103A4000903043F02003C4F89030D4F89030002B2D
:103A50003DD0800609D501F0200002F080510843D6
:103A600003D0616F09B120468847D4F890002168DF
:103A70008968490602D410F0280F2AD0204601F0A8
:103A8000A9FF2068806840061ED52068083050E8ED
:103A9000001F21F0400100E021E040E80012002A70
:103AA000F3D1D4F8800078B179498163D4F88000EB
:103AB000FDF7D2FC00280AD0D4F88000816B00E02A
:103AC0002046BDE8F04108472046FFF754FFBDE817
:103AD000F0812046FFF74FFFC4F89050F7E7D4F885
:103AE0006CC02027BCF1010F7ED15FEAC06C7BD592
:103AF0005FEAC16C78D510201862206880684006A3
:103B000051D5D4F880100A6850680004000C3ED0EB
:103B1000B4F85C3083423AD9A4F85E0008680068C3
:103B200080062CD4216851E8000F20F4807041E811
:103B30000002002AF6D12068083050E8001F21F06A
:103B4000010140E80012002AF5D12068083050E851
:103B5000001F21F0400140E80012002AF5D1C4F80E
:103B60008C70E566216851E8000F20F0100041E8F4
:103B70000002002AF6D1D4F88000FDF735FC266754
:103B8000B4F85C00B4F85E10401A81B207E0B4F8F3
:103B90005C1081429BD11068800698D5266720462C
:103BA000FFF7C6FD93E7B4F85C00B4F85E10401A66
:103BB00081B2B4F85E00002889D0002987D022683D
:103BC00052E8000F20F4907042E80003002BF6D179
:103BD0002D4BDB432068083050E8002F1A4040E8A6
:103BE000002CBCF1000F00E00EE0F3D1C4F88C70A3
:103BF000E5666567206850E8002F22F0100240E873
:103C00000023002BF6D1C9E7C60209D5560207D515
:103C10004FF4801018622046BDE8F041FFF7AABEBD
:103C200003060AD501F0800302F40002134304D016
:103C3000A16F00297FF444AF49E7420611D54A0637
:103C40000FD52046016851E8002F22F0400241E8DC
:103C50000023002BF6D1C0F88870856700F08BF93F
:103C600035E7020206D54A0004D52046BDE8F041FA
:103C7000FFF77FBEC00195D5002993DA2046BDE845
:103C8000F041FFF729BE00000100001020010004F0
:103C9000A958000810B5040003D0D4F8880010B16A
:103CA00007E0012010BD002084F88400204600F0C9
:103CB00027F82420C4F888002068016821F0010159
:103CC0000160A06A10B1204601F034FD204601F0E9
:103CD000C3FE0128E6D02068416821F4904141608C
:103CE0002068816821F02A0181602068016841F024
:103CF000010101602046BDE8104001F07FBD0000D9
:103D00002DE9F04F97B00446142111A8FCF7FBFAF7
:103D100044216846FCF7F7FA62492068624E0227A0
:103D200000254FF007084FF0200A4FF0100B4FF01E
:103D30008009884257D10120CDE900056846FEF789
:103D40004BFA08B1FDF7A7FA306E40F480403066B8
:103D5000306E00F480401690F06C40F00100F0648A
:103D6000F06CCDE9127500F0010016904FF4C060C0
:103D7000CDE91458119011A94FF09040FDF7C0FC07
:103D80004B4E4A484F4630601820C6E90105C6E947
:103D900003597561C6E9065A30463562FDF7F6FBF0
:103DA00008B1FDF778FAC4F88060B462404E3F482D
:103DB000603614303060C6E903577561B561F5614E
:103DC00019203562C6E9010B3046FDF7DFFB08B16B
:103DD000FDF761FAE667002201212520B462FEF7B3
:103DE00063F9252058E03349884257D16846009747
:103DF0000295FEF7F1F908B1FDF74DFAB06D40F408
:103E00000030B065B06D00F400301690F06C40F0FA
:103E10000100F064F06CCDE9127500F0010016901D
:103E20000C20CDE91458119011A94FF09040FDF7E6
:103E300067FC1F4E1D48C036283830601A20C6E97E
:103E40000105C6E903597561C6E9065A4F46304671
:103E50003562FDF79BFB08B1FDF71DFAC4F88060E1
:103E6000B4621248144E14383060C6E903577561C5
:103E7000B561F5611B203562C6E9010B3046FDF7DF
:103E800085FB08B1FDF707FAE667002211462620F8
:103E9000B462FEF709F92620FEF7F8F817B0BDE87E
:103EA000F08F000000380140001002403000024056
:103EB0001003002000440040300400207047704789
:103EC0002DE9F84F0446D0F88800984615460E466E
:103ED000202802D00220BDE8F88F96B38DB30020D1
:103EE000C4F890004FF02109C4F888901834FDF709
:103EF0002BFDA5878246E58754F8100C183CB0F5D9
:103F0000805F01D1206910B13546002600E0002510
:103F10005FF02007B4F8560053464FF00002CDF88A
:103F20000080D8B18021204601F024FFD8B955B1D6
:103F300015F8010B21688862D4F8881039EA01006D
:103F400006D00120C7E736F8020BC0F30800F1E7FE
:103F5000B4F85600401EA4F85600DBE74021204686
:103F600001F008FF18B1C4F888700320B3E7C4F863
:103F700088700020AFE77047FEE701688A69D24386
:103F8000920701D400228A6200688169C943C90787
:103F900003D0816941F00101816170472DE9F0474B
:103FA0000446006889460026816935461746C906D9
:103FB0004FF0200841D51021C1612FE0B9F1FF3F3A
:103FC0002CD0FDF7C1FCC11B494502D8B9F1000F47
:103FD00024D12068416894F8422001F4804183692B
:103FE000DB431B0415D4B1F5804F12D0202A10D02A
:103FF000416841F480414160FDF7A6FC074608E0B6
:10400000FDF7A2FCC01B192803D945F020050126A5
:1040100004E020688069C0438006F1D4206880698C
:10402000C043800602D5002EC8D003E016B921682F
:10403000C1F81C8045F00405012621688869C20585
:1040400005D54FF4807245F00105CA61012641058E
:1040500009D522684FF4806145F00805D161012639
:10406000800502D40AE0800507D521684FF400706E
:1040700045F00205C861012600E086B12046FFF741
:104080007CFF54F8240B4168064A11404160206AC5
:104090002843206284F81D800020A07720773046D6
:1040A000BDE8F08700E800FE2DE9F8430446164617
:1040B000DDE9089714489846DAB2009000232046BC
:1040C00000F056F83A464946204600F0D1F8B8B913
:1040D000F5B2B8F1010F08D02168300A88623A467B
:1040E0004946204600F0C4F850B9206885624B4626
:1040F000002240212046009700F052F8002800D00E
:104100000120BDE8F8830000002000802DE9F8437D
:104110000446164615489846DDE90897DAB2C30208
:104120000090204600F024F83A464946204600F028
:104130009FF8B8B9F5B2B8F1010F08D02168300A7C
:1041400088623A464946204600F092F850B9206805
:1041500085624B46002280212046009700F020F81F
:10416000002800D00120BDE8F88300000020008076
:1041700010B5C1F3090141EA02410268029C1943EA
:104180002143506821F000414FF4806303EA545307
:10419000024C234398430843506010BDFF63FF0364
:1041A0002DE9F0411D4617460E460446DDF81880FD
:1041B00027E0424629462046FFF7F0FE10B10120D5
:1041C000BDE8F081681C1CD0FDF7BEFBA0EB080029
:1041D000A84200D8ADB92068806936EA00000ED048
:1041E0000020B8420DD154F8440F40F0200044F8AC
:1041F0000409202060700020A0702070DFE70120FB
:10420000EFE72068806936EA000004D00020B84259
:10421000CFD00020D4E70120F9E770B516460D464F
:1042200004461EE0324629462046FFF7B7FE08B195
:10423000012070BDFDF788FB801BA84200D885B91E
:1042400020688069C04380060BD554F8440F40F0C5
:10425000200044F80409202060700020A070207025
:10426000E6E720688069C0438006DBD4002070BD8B
:1042700070B516460D46044620E0324629462046D3
:10428000FFF78CFE08B1012070BD681C16D0FDF749
:104290005BFB801BA84200D885B920688069C043B9
:1042A00080070BD554F8440F40F0200044F804096F
:1042B000202060700020A0702070E4E720688069F2
:1042C000C0438007D9D4002070BD000008B52DA0E0
:1042D00001F0BEFE00F060F9684600F02DF920B153
:1042E0002FA001F0B5FE012008BD9DF80010152992
:1042F00004D032A001F0ACFE022008BD3BA001F0CA
:10430000A7FEC021022000F063F988BB0021032032
:1043100000F05EF960BB0021042000F059F938BBC1
:104320000021052000F054F910BB0021062000F008
:104330004FF9E8B90F21082000F04AF9C0B903216C
:10434000092000F045F998B927210A2000F040F92A
:1043500070B924210C2000F03BF948B924210D202C
:1043600000F036F920B97F21102000F031F908B1B2
:10437000032008BD6420FDF7B1F924A001F068FE18
:10438000002008BD5B4D415833303130325D20494B
:104390006E69742073746172742E2E2E0D0A0000E3
:1043A0005B4D415833303130325D205265616420BD
:1043B0004944206661696C65640D0A005B4D415893
:1043C00033303130325D2057726F6E672049443A86
:1043D0002030782530325820286578706563746500
:1043E000642030783135290D0A0000005B4D4158BA
:1043F00033303130325D20506172742049443A20AC
:104400003078253032580D0A000000005B4D4158CD
:1044100033303130325D20496E69742073756363C7
:104420006573730D0A0000002DE9F041B6B00F4628
:104430000646154633A9062000F082F820B934A9B3
:10444000042000F07DF818B1012036B0BDE8F081FD
:104450009DF8D0109DF8CC00814201D3081A02E0EB
:10446000C0F12000084410F0FF044FF000001AD003
:10447000BC4200D93C4603A804EB44014F00009025
:104480006421CDE901714FF0070801234246AE21B6
:104490001C48FDF7B7FB50B13A4641461AA001F05F
:1044A000D7FD0320D1E705B128700220CDE7002118
:1044B00021E000BF01EB410203A810F8123000EB2D
:1044C00042001B04427843EA022283781A4346F8EA
:1044D0003120C37807791B04407943EA072303435B
:1044E000C2F3110246F8312006EBC100C3F31102FA
:1044F000491CC9B24260A142DCD305B12C70002036
:10450000A3E70000E40000205B4D41583330313018
:10451000325D205265616452656773206572726F07
:10452000723A207265673D3078253032582C206C05
:10453000656E3D25640D0A000146FF20AFF3008043
:104540003EB50446012200916420CDE901201346C6
:104550002246AE210548FDF755FB002804D0214630
:1045600003A001F075FD01203EBD0000E400002025
:104570005B4D415833303130325D205265616452B9
:104580006567206572726F723A207265673D307898
:10459000253032580D0A000010B506A001F058FD74
:1045A0004021092000F014F8BDE810406420FDF718
:1045B00095B800005B4D415833303130325D2053A7
:1045C0006F66742072657365742E2E2E0D0A0000BE
:1045D00013B5044684B06423012105A88DE80B00BF
:1045E0000B462246AE210648FDF7BEFB002804D04C
:1045F000214604A001F02CFD012006B010BD0000F2
:10460000E40000205B4D415833303130325D20579B
:1046100072697465526567206572726F723A2072B2
:1046200065673D3078253032580D0A002DE9F04F8E
:10463000C5B043AA202103A8FFF7F6FE00287BD1CE
:104640009DF80C01002877D0DFF8F4A00025AAF52A
:10465000FA69A9F58B64271D04F10C06301F4FF48D
:10466000FA7B449064E03748C17A29B1416D8646AF
:10467000B1F5C87F23D038E003A98446406D51F8D6
:10468000352001EBC5014AF82020496849F820107F
:10469000C4E90421401C6146CCF85400584545DB70
:1046A000CDE90064264A02978846449B096DA2F52D
:1046B000FA6002F01DFC012188F80B1032E0642042
:1046C00052464B4602EB8008A8F5805852F820C0AD
:1046D000C8F870CE03EB800853F820C0A8F58058C6
:1046E000401CC8F870CE5845ECDB03A850F83520C4
:1046F00000EBC5004AF82120406849F82100C4E9D0
:104700000420491C7046CEF8541059450EDBCDE903
:10471000006402970A4A8046016D449BA2F5FA6044
:1047200002F0E6FB4FF4C870C8F854006D1CEDB2FF
:104730009DF80C01854296D345B0BDE8F08F00008E
:1047400040280020280000201FB500208DF80C0014
:1047500001466B2000F006F988B16420FCF7BEFF2B
:1047600003A8642301218DE80B000B467522D0219C
:104770001048FDF747FA20B1022004B010BD012017
:10478000FBE79DF80C00682801D00320F5E707211E
:10479000192000F0E7F806211A2000F0E3F81821AC
:1047A0001B2000F0DFF800211C2000F0DBF80020C7
:1047B000E3E700009000002010B58AB0044609AA83
:1047C00005A904A88DE8070003AB08AA07A906A855
:1047D00000F08AF810B101200AB010BDBDF9180030
:1047E00000EE100AF8EEC00A9FED3A0A60EE800A69
:1047F000C4ED000ABDF91C0000EE900AF8EEE00AD4
:1048000060EE800AC4ED010ABDF9200000EE900AB6
:104810003148F8EEE00A20EE800A84ED020A0178C1
:10482000C9B9BDF90C1000EE101AB8EEC00A80ED3F
:10483000010ABDF9101000EE101AB8EEC00A80EDA2
:10484000020ABDF9141000EE101A0121B8EEC00AD8
:1048500080ED030A0170BDF90C10D0ED010A00EEE5
:10486000101AB8EEC00A70EE600A9FED1C0A80EEC6
:10487000801A84ED031ABDF9101090ED021A00EEB3
:10488000901AF8EEE00A70EEC10A80EE801A84ED0C
:10489000041ABDF9141090ED031A00EE901AF8EE08
:1048A000E00A70EEC10A80EE801A84ED051ABDF9A7
:1048B00024009FED0B1A00EE100A0020F8EEC00A4B
:1048C00080EE810ADFED070A30EE200A84ED060A49
:1048D00082E7000000008038140000203333834159
:1048E0000000AA43B81E12422DE9F04788B01C46CA
:1048F000DDE911A80E46074603A80E216423DDF862
:1049000040908DE80B0015463B220123D02114482E
:10491000FDF778F918B1012008B0BDE8F087BDF8BF
:104920000C0040BA3880BDF80E0040BA3080BDF8A7
:10493000100040BA2880BDF8120040BAA8F8000064
:10494000BDF8140040BA2080BDF8160040BAA9F89E
:104950000000BDF8180040BAAAF800000020DBE70C
:104960009000002003B583B06423012204A98DE8E0
:104970000E0013460246D0210448FDF7F5F910B1A8
:10498000002005B000BD0120FBE7000090000020E2
:10499000194808B5816C41F004018164816C01F013
:1049A00004010091816C41F001018164806C00225E
:1049B00000F00100009011460B20FDF775FB0B2065
:1049C000FDF764FB002211460C20FDF76DFB0C2067
:1049D000FDF75CFB002211460D20FDF765FB0D2065
:1049E000FDF754FB002211460E20FDF75DFBBDE8EC
:1049F00008400E20FDF74ABB001002402DE9F043AD
:104A000087B014216846FBF77EFC2B48C16C41F04F
:104A10002001C164C16C01F020010591C16C41F01D
:104A20000101C164C16C01F001010591C16C41F04B
:104A30000401C164C16C01F004010591C16C41F035
:104A40000201C164C06C012200F00200DFF86C803A
:104A50001603059031464046FCF771FF0122DFF84E
:104A60006090170239464846FCF769FF012400258B
:104A7000CDE9004569464FF090400294FCF740FEB6
:104A80000720CDE90005694602944046FCF738FE50
:104A90000220CDE90250CDE9006469464046FCF7AA
:104AA0002FFE0097CDE90145694648460395FCF77E
:104AB00027FE07B0BDE8F083001002400004004864
:104AC00000080048134810B51149016012494160BF
:104AD00000210122C0E90212016141618161C161CD
:104AE0000162FCF78BFF08B1FCF7D5FB00210948F8
:104AF000FCF730FF08B1FCF7CEFB00210548FCF7BE
:104B000054FF002803D0BDE81040FCF7C4BB10BD23
:104B10000054004090000020C285B240134810B5F8
:104B2000114901601249416000210122C0E90212CD
:104B3000016141618161C1610162FCF75FFF08B100
:104B4000FCF7A9FB00210948FCF704FF08B1FCF7BA
:104B5000A2FB00210548FCF728FF002803D0BDE890
:104B60001040FCF798BB10BD00580040E400002046
:104B7000C285B240124810B5104901604FF48271ED
:104B8000416000214FF4E062C0E902124FF400726C
:104B90000161C0E905120822C0E90721072241622C
:104BA000C0E90A1201634163FDF7A6FF002803D0A4
:104BB000BDE81040FCF76FBB10BD0000003800409E
:104BC0003801002010B588B00024174800940194E3
:104BD00002940394049405944FF08041069401607C
:104BE00040F2A361C0E901146321C0E903148461A8
:104BF000FEF753FB08B1FCF74EFB4FF480500090DA
:104C000069460948FEF7D2FB08B1FCF744FB04945F
:104C100004A905480694FEF7F1FA002801D0FCF734
:104C20003AFB08B010BD00009C010020184810B5E8
:104C3000164901604FF4E1314160002181600C228E
:104C4000C160C0E904128161C16101624162816297
:104C5000FFF720F808B1FCF71EFB00210C48FEF717
:104C600062FE08B1FCF717FB00210948FEF735FE8C
:104C700008B1FCF710FB0648FEF715FD002803D02D
:104C8000BDE81040FCF707BB10BD00000038014034
:104C9000E8010020184810B5164901604FF4E131D1
:104CA0004160002181600C22C160C0E90412816171
:104CB000C161016241628162FEF7ECFF08B1FCF75D
:104CC000EAFA00210C48FEF72EFE08B1FCF7E3FAE1
:104CD00000210948FEF701FE08B1FCF7DCFA06489E
:104CE000FEF7E1FC002803D0BDE81040FCF7D3BA82
:104CF00010BD0000004400407C020020FEE7FEE7FB
:104D000010B54FF400710348FBF7FDFABDE8104001
:104D100000F0A6B8103000202DE9F74F002592468C
:104D2000834680240AEB45001AF8158090F801901C
:104D30000198002610EB050724FA06F010EA080F88
:104D400006D00BEB0600F9B2C0B2012200F01EF84B
:104D5000761CF6B2082EEFD30026A04628FA06F0FD
:104D600010EA090F07D00BEB06000830F9B2C0B209
:104D7000012200F00BF8761CF6B2082EEED36D1C63
:104D8000EDB2102DCED3BDE8FE8F000030B57F28E8
:104D90000FD81F290DD8074DCB08012401F00701BA
:104DA00005EB80008C40C15C0AB1214300E0A143C7
:104DB000C15430BD1030002010B5C820FCF78EFC67
:104DC000AE2000F049F9D52000F046F9802000F02F
:104DD00043F9A82000F040F91F2000F03DF9D3204E
:104DE00000F03AF9002000F037F9402000F034F9E3
:104DF0008D2000F031F9142000F02EF9202000F071
:104E00002BF9022000F028F9A12000F025F9C82094
:104E100000F022F9DA2000F01FF9022000F01CF95E
:104E2000812000F019F9CF2000F016F9D92000F008
:104E300013F9F12000F010F9DB2000F00DF940200B
:104E400000F00AF9A42000F007F9A62000F004F908
:104E5000AF2000F001F9BDE81040FFF751BF00009E
:104E60002DE9FF410024114E64274FF0010821462F
:104E7000002000F01FF8002506EB850003A9005D67
:104E8000CDE900188DF80C0001234022029778210B
:104E90000748FCF769FF6D1CEDB2802DECD3641C54
:104EA000E4B2042CE3D3BDE8FF8100001030002001
:104EB000E400002010B50446B031C8B200F0CCF8D0
:104EC000102040EA141000F0C7F804F00F00BDE80D
:104ED000104000F0C1B800002DE9F047203A8146AB
:104EE0000E46D0B2102B4FF0000420D01E4900EB2C
:104EF000400001EB800A00BF1AF80470002506EBA1
:104F00000408380607D509EB050008F0FF01C0B218
:104F10000122FFF73BFF78066D1C070EEDB2062D50
:104F2000EFD3641CE4B2082CE6D3BDE8F0870F4948
:104F300001EB001A00251AF8047006EB0408380685
:104F400007D509EB050008F0FF01C0B20122FFF709
:104F50001DFF78066D1C070EEDB2082DEFD3641C03
:104F6000E4B2102CE6D3E0E7E47F0008F47900080F
:104F70002DE9F047984615460E4604467F281FD86F
:104F80001F2E1DD8B8F1100F03D00627C7F18009D6
:104F90000FE00827FAE7434631462046FFF79CFF1B
:104FA000E019C4B26D1CA14503DA06EB0800002429
:104FB000C6B22A78002AEED1BDE8F047FFF750BF0D
:104FC000BDE8F08730B58BB004460D4608922DE061
:104FD00009A908A800F024FF40B3099880280ED240
:104FE000772C02D900241035EDB21F2D22D8C2B281
:104FF000102329462046FFF76FFF083415E06F2C79
:1050000002D900241035EDB21F2D13D8694600F0E7
:10501000DFFF98B10CA0099901F01AF810233F2284
:1050200029462046FFF758FF1034E4B2089800786C
:105030000028CDD1FFF714FF0BB030BD6A462946DA
:105040002046FFF769FEEFE7464F4E543F20552BB1
:105050002530346C580D0A0001B584B0012164225A
:1050600004A88DE807000B46002278210248FCF7CF
:105070007BFE05B000BD0000E400002070472DE974
:10508000F843044640684FF48276154689464FF44B
:1050900000474FF48068B04209D1A068B84201D0FF
:1050A000404504D12068016821F0400101604B4671
:1050B000002280212046009500F0B8F980B9606890
:1050C000B04214D1A068B84201D040450FD14B4640
:1050D00000224FF4C0612046009500F037F930B14E
:1050E000206E40F0200020660320BDE8F8830020F9
:1050F000FBE7F8B515460E460B4600920446002223
:105100004FF4C05100F022F988B9334600228021C3
:105110002046009500F08AF948B9334600224FF442
:10512000C0612046009500F011F9002804D0206EDF
:1051300040F0200020660320F8BD0000F8B50446CA
:105140000FA0104D00680090080C8DF80100080AAF
:105150008DF802008DF803104FF08050164628603D
:105160006423042269460848FDF72DFE6423324675
:1051700021460548FDF768FD4FF480502860F8BDD2
:1051800003000000180400483801002010B500F0AA
:1051900053F810F03C0F12D000F0AAF8084C4FF072
:1051A00080502060012000F059F8002000F056F8EF
:1051B0004FF480502060BDE8104000F079B810BD79
:1051C00018040048074808B501680A6842F0400220
:1051D0000A60006801E0C16800918168C907FAD1DE
:1051E00008BD0000380100201CB59F208DF8040088
:1051F00000200F4C00904FF080502060642301226B
:1052000001A90C48FDF7DFFD642303226946094824
:10521000FDF71AFD4FF4805020609DF800009DF8C6
:105220000110000440EA01209DF8021008431CBD53
:10523000180400483801002010B5074C4FF080508A
:105240002060052000F00AF8FF2000F007F84FF476
:105250008051216010BD00001804004870B512494B
:105260004FF480550D60114B1C6805E00A68561E0E
:105270000E6001D200200CE0A268D2439207F5D460
:10528000E0600D601A6808E00868431E0B6004D2F5
:10529000012000F03BF8C0B270BD9068C043C00769
:1052A000F2D1D068F7E7000010000020380100209C
:1052B00070B50D4D4FF0805028600520FFF7CEFFF0
:1052C0000A4C4FF480562660FF20FFF7C7FF216885
:1052D0004A1E226004D2BDE87040042000F016B8D7
:1052E000C007F1D12E6070BD1804004810000020E6
:1052F00010B5054C4FF0805020600620FFF7AEFF40
:105300004FF48050206010BD1804004810B50146CD
:1053100002A000F09DFE002010BD00003C3C2D4688
:105320004C4153482D4552524F522D3E3E20535032
:10533000492074696D656F757421206572726F7292
:10534000436F6465203D2025640A00002DE9FE4F6F
:105350004FF0000A984617460E4604460C9D8DF8FD
:1053600004A0FCF7F1FA411BA8EB0105FCF7ECFAED
:10537000814620684FF4C06B0C3002902A480068C8
:10538000C0EBC00000EB8000000D6843009016E009
:105390005E4506D12FB9029800788DF804009DF87B
:1053A0000400B8F1FF3F0AD0FCF7CEFAA0EB0900E9
:1053B000A8420CD25DB1009898B3401E00902068BE
:1053C00080683040B842E3D10020BDE8FE8F2068FD
:1053D000416821F0E00141606068B0F5827F0BD147
:1053E000A068B0F5004F02D0B0F5806F04D12068FE
:1053F000016821F040010160A06AB0F5005F09D1A9
:105400002068016821F4005101602068016841F4BE
:1054100000510160012084F85D0084F85CA0032045
:10542000D3E7FFE70025CAE70C0000202DE9F84389
:105430001E46914688460446089DFCF785FA401BA7
:10544000351AFCF781FA074626480068C0F3CB30CE
:1054500068430AE0701C09D0FCF776FAC01BA8422A
:105460000FD275B10098B8B3401E009020688168D3
:1054700038EA010033D000214945EBD10020BDE8D6
:10548000F8832068416821F0E00141606068B0F570
:10549000827F0BD1A068B0F5004F02D0B0F5806FCD
:1054A00004D12068016821F040010160A06AB0F5D4
:1054B000005F09D12068016821F400510160206873
:1054C000016841F400510160012084F85D00002072
:1054D00084F85C000320D2E7FFE70025C6E701213E
:1054E000CAE700000C0000207047FCF77DBD00B546
:1054F00093B038216846FAF706FF14210EA8FAF790
:1055000002FF0020FCF702FE0220C10103914021AE
:1055100004910421CDE9080100905521CDE90A103C
:1055200007900C900D906846FDF7E4F808B172B64C
:10553000FEE70F200E9003200F9000201090119096
:10554000129004210EA8FCF78BFF002801D072B640
:10555000FEE713B000BD00000248016841F470018D
:105560000160704788ED00E00148FDF7A0BF000032
:105570009C0100202DE9F0430268254B254D264E65
:10558000264C4FF08049984207D0484505D0A842A4
:1055900003D0B04201D0A04203D122F070074A6884
:1055A0003A431F4FDFF87CC0DFF87C8098420DD073
:1055B00048450BD0A84209D0B04207D0A04205D040
:1055C000B84203D0604501D0404503D122F4407574
:1055D000CA682A434D6922F080022A438D68C56259
:1055E0000D688562984207D0A04205D0B84203D02A
:1055F000604501D0404501D109690163016841F06E
:1056000004010160012141610260BDE8F0830000F6
:10561000002C01400004004000080040003401401C
:1056200000400140004401400048014010B584683A
:1056300042EA032224F47F440A432243826010BDDD
:105640008268034B1A400A4342F0070181607047A9
:105650008FFFCFFF10B5036A046A24F001040462CF
:105660000E4CA0420BD00E4CA04208D00D4CA042D4
:1056700005D00D4CA04202D00C4CA04203D1046ACC
:1056800024F004040462846924F0F00444EA02145F
:1056900023F00A020A438461026210BD002C01401B
:1056A00000340140004001400044014000480140F6
:1056B00010B5036A046A24F0100404620A4CA04284
:1056C00002D00A4CA04203D1046A24F040040462D0
:1056D000846923F0A00324F4704444EA023243EACC
:1056E00001118261016210BD002C014000340140B3
:1056F00030B5416EB9B1026891689268C1F34261F8
:105700000B4B520F9C5CE50003F10804A25CB5FB57
:10571000F2F2A0F86A205A5C615CD200B2FBF1F1AF
:10572000A0F8681030BD0121A0F86A10F8E7000069
:10573000C878000890F82810090706D501684A685B
:10574000836B22F400421A434A6090F82810C9077C
:1057500006D001684A68C36A22F400321A434A60DC
:1057600090F82810890706D501684A68036B22F46F
:1057700080321A434A6090F82810490706D501681C
:105780004A68436B22F480221A434A6090F828103A
:10579000C90606D501688A68C36B22F480521A4391
:1057A0008A6090F82810890606D501688A68036C1B
:1057B00022F400521A438A6090F82810490611D545
:1057C00001684A68436C22F480121A434A60416CB3
:1057D000B1F5801F06D101684A68836C22F4C002CB
:1057E0001A434A6090F82810090606D501684A68ED
:1057F000C06C22F4002202434A6070472DE9F8434E
:1058000000260446C0F89060FCF79EF880462068A9
:1058100000684FF0200500076FF07E4713D5434620
:10582000002229042046009700F0A4FA58B121680C
:1058300051E8000F20F0800041E80002002AF6D174
:10584000C4F8885021E020680068400722D543460C
:1058500000224FF480012046009700F08BFAC8B177
:10586000216851E8000F20F4907041E80002002AFE
:10587000F6D12068083050E8001F21F0010140E80F
:105880000012002AF5D1C4F88C5084F884600320FB
:10589000BDE8F883C4F88850C4F88C5044F86C6FA5
:1058A000666026760020F3E710B5806AFEF763F89D
:1058B00010BD70B5846AD4F88800D4F88C50216883
:1058C0008968090604D5212802D1204600F0ACF8E9
:1058D00020688068400604D5222D02D1204600F0C1
:1058E00079F8D4F8900040F01000C4F890002046F9
:1058F000FEF741F870BD70B50146806A0A6812680B
:105900004FF0000392062DD4A0F85E30046854E8EE
:10591000002F22F4807244E80025002DF6D10268A1
:10592000083252E8004F24F0010442E80045002DFF
:10593000F5D10268083252E8004F24F0400442E8F2
:105940000045002DF5D12022C0F88C20C26E012A1E
:1059500008D1046854E8002F22F0100244E8002522
:10596000002DF6D10367C26E012A02D0FEF7A6FA17
:1059700070BDA0F85E3009684968B0F85C2089B253
:105980008A4201D9A0F85E10B0F85E10511A89B2AF
:10599000FDF7CEFE70BD10B50246806A0121016799
:1059A000C16E012902D0FEF78AFA10BDB0F85C1072
:1059B0004B08A0F85E301268526892B2914201D34F
:1059C000A0F85E20B0F85E20891A89B2FDF7B0FE1B
:1059D00010BD000010B5026852E8001F21F490715C
:1059E00042E80013002BF6D10E4B0268083252E851
:1059F000001F194042E80014002CF6D1C16E0129A5
:105A000008D1016851E8002F22F0100241E800237C
:105A1000002BF6D12021C0F88C100021C16641670F
:105A200010BD0000FEFFFFEF026852E8001F21F0EA
:105A3000C00142E80013002BF6D10168083151E89B
:105A4000002F22F4000241E80023002BF5D1202191
:105A5000C0F88810704700002DE9F0410446016845
:105A600080682269E3691043626900251A43104384
:105A7000DFF82CC20A688B4B1A4002430A60206888
:105A80004168E26821F44051114341602168A069F6
:105A9000614501D0226A10438A68834B1A40024351
:105AA0008A602068C16A626A21F00F011143C162F5
:105AB0007E4923687E488B420DD1D0F8880010F0D3
:105AC000030006D0012855D0022842D003283FD138
:105AD00052E001203DE077498B420BD1D0F888009D
