:020000040800F2
:10000000700D00209D010008B13600089F300008E7
:10001000AD3600082D0E0008E54500080000000080
:10002000000000000000000000000000D13C0008BB
:10003000D90F000800000000893A0008D33C0008EE
:10004000B7010008B7010008B7010008B7010008B0
:10005000B7010008B7010008B7010008B7010008A0
:10006000B7010008B7010008DB0F0008B70100085E
:10007000B7010008B7010008B7010008B701000880
:10008000310E0008410E0008B7010008B701000852
:10009000B7010008B7010008B7010008E50F000824
:1000A000B7010008B7010008B7010008B701000850
:1000B000B7010008B7010008B7010008B701000840
:1000C000B7010008B7010008B7010008B701000830
:1000D000B70100087D4400088D440008B7010008FE
:1000E000B7010008B7010008B7010008B701000810
:1000F000B7010008B7010008B7010008B701000800
:10010000B7010008B7010008B7010008B7010008EF
:10011000B7010008B7010008B7010008B7010008DF
:10012000B7010008B7010008510E0008B701000828
:10013000B7010008B7010008B7010008B7010008BF
:10014000B7010008B7010008B7010008B7010008AF
:10015000B7010008B7010008610E0008B7010008E8
:10016000B7010008B7010008B7010008B70100088F
:10017000B7010008B7010008B7010008000000003F
:10018000B7010008B7010008DFF80CD000F09AFBB7
:100190000048004759500008700D0020064880476D
:1001A00006480047FEE7FEE7FEE7FEE7FEE7FEE75C
:1001B000FEE7FEE7FEE7FEE7913D00088901000843
:1001C0002DE9F05F0546002092469B46884606468C
:1001D000814640241BE0284641464746224600F01F
:1001E000EAF853465A46C01A914110D311461846B0
:1001F000224600F0D1F82D1A67EB01084F4622463F
:100200000120002100F0C8F817EB00094E41201E24
:10021000A4F10104DFDC484631462A464346BDE8E6
:10022000F09F40EA01039B0703D009E008C9121FB1
:1002300008C0042AFAD203E011F8013B00F8013BA0
:10024000521EF9D27047D2B201E000F8012B491ECC
:10025000FBD270470022F6E710B513460A46044663
:100260001946FFF7F0FF204610BD30B505462A4677
:100270000B4612F8010B13F8014B08B1A042F8D05D
:100280001CB1002802D06D1CF1E7284630BDCAB26F
:10029000401E10F8011F8A4202D00029F9D1002027
:1002A0007047421C10F8011B0029FBD1801A7047CF
:1002B00070B50F4D00B92868002412E00A4602E02C
:1002C0009E4203D0521C1378002BF9D1DAB222439C
:1002D00005D02BB124B1002100F8011B04E0044635
:1002E000401C0678002EE9D12860204670BD000031
:1002F0007000002070B5064604F0B6F904680546A3
:100300000A220021304600F0B5F82C6070BD00F0E4
:10031000004230F000400AD0C10D01F56071C0F319
:10032000160042EA0151C2084007114370470020FD
:100330000146704701F0004330B421F0004150EA1B
:10034000010206D00A0DA2F56072C1F31301002A62
:1003500002DC30BC00207047440F44EAC104C100F5
:10036000E01830BC00EBC25000F0BCB830B50B4612
:10037000014600202022012409E021FA02F59D42D5
:1003800005D303FA02F5491B04FA02F52844151EA9
:10039000A2F10102F1DC30BD202A04DB203A00FA90
:1003A00002F1002070479140C2F1200320FA03F3CC
:1003B000194390407047202A04DB203A21FA02F0CA
:1003C0000021704721FA02F3D040C2F1200291408F
:1003D00008431946704700000FB4002300B589B0E8
:1003E0000CA900910B996FF00042CB601E4B069355
:1003F0001E4B07930423CDE901321D4A08920246A1
:100400006B46002000F010FB09B05DF814FB70B5DE
:1004100086B006464FF0FF300091CDE90101002083
:1004200015460C4604903246694604A8FFF7D4FFEF
:1004300002460498211825B108B1084600E020467C
:100440002860049800280DD0002A02DD0098884218
:1004500008D0081B0094CDE901043246694604A87F
:10046000FFF7BAFF06B070BD610C00087F0C0008F2
:10047000150900082DE9F04791460F4680460446CD
:10048000002614F8015B2DB100F040FA0068405DD1
:10049000C007F6D12B2D02D02D2D18D0641E4A4650
:1004A0003946204600F0FCFB27B13968A14201D152
:1004B000C7F8008071054FF002040BD540420028B8
:1004C00003DD04F0D1F80460A007BDE8F08746F42E
:1004D0008066E4E70028F8DA04F0C6F804606FF0FC
:1004E0000040F2E70029A8BF7047401C490008BF40
:1004F00020F00100704710B4B0FA80FC00FA0CF054
:1005000050EA010404BF10BC704749B1CCF120048B
:1005100021FA04F411FA0CF118BF01212143084318
:10052000A3EB0C01CB1D4FEA00614FEA102042BF44
:10053000002010BC704700EBC35010440029A4BF3A
:1005400010BC7047401C490008BF20F0010010BCDF
:1005500070472DE9FE4F804681EA0300C00F0C462C
:10056000009021F0004123F00045B8EB0200A941C2
:1005700005D24046214690461C460B46024623F0D3
:100580000040104347D0270DC7F30A00C3F30A51B8
:100590000290401A019040286BDAC3F3130040F434
:1005A000801B0098924620B10023D2EB030A63EB34
:1005B0000B0B01985946C0F140025046FFF7ECFE84
:1005C00006460D4650465946019A00F08DF910EB4B
:1005D00008006141002487EA115284EAE7731A4354
:1005E00040D0009A62B3019A012A4FEA075215DC03
:1005F000001B61EB02014FF0004202EA0752CDE915
:100600000042001C41F5801132462B4600F0A6FB4B
:1006100003B0BDE8F08F40462146F9E7001B61EBCF
:100620000201001C41F5801300185B412018A2F55F
:10063000001747EB030140EAD570B6196D4111E090
:100640006D084FEA360645EAC0754FEA0752001BAF
:1006500061EB0201001C41F5801149084FEA3000AE
:100660000019514132462B4603B0BDE8F04F00F06F
:1006700066BB0098012240000023D0EB020263EB2E
:10068000E073009821464FEAE074B8EB000061EB9C
:100690000401E9E783F000435BE781F0004158E79C
:1006A0002DE9FE4F81EA030404F0004421F00041EB
:1006B00000944FF0000B23F0004350EA01045ED099
:1006C00052EA03045BD0C3F30A54C1F30A552C4425
:1006D000A4F2F3340194A0FB0254C1F3130141F4DA
:1006E0008011C3F3130343F4801301FB024400FBA6
:1006F000034E840A970A44EA815447EA8357A4FBCD
:10070000076802958D0A05FB07854FEA932C04FBC9
:100710000C542705029D4FEA065847EA1637B5EBF9
:1007200008056EEB070C870E920E47EA811742EA26
:100730008312A7FB0201B6EB0B0164EB00042B0D47
:1007400043EA0C335E1844EB1C50DA465146E7FB93
:100750000201C5F313044FEA0B3343EA14534FEA83
:100760000432019C43EA0603A4F10C040294009CA9
:10077000CDE900B400F0F2FA03B0BDE8F08F00203C
:100780000146F9E72DE9F04D81EA030404F0004B3E
:1007900021F0004514464FF0000A23F0004150EAD2
:1007A000050220D054EA01021DD0C5F30A570246C3
:1007B000C5F31303C1F31300C1F30A5640F48015C7
:1007C00043F48013A7EB0608101BD64608F2FD3849
:1007D00073EB050002D308F1010801E092185B41B8
:1007E000B8F1000F03DA00200146BDE8F08D0020CB
:1007F0004FF48011064684460EE0171B73EB050785
:1008000005D3121B63EB050306434CEA010C4908B0
:100810004FEA300092185B4150EA0107EDD152EAED
:10082000030012D082EA040083EA0501084305D0E0
:10083000101BAB4106D20122002306E000224FF03C
:10084000004302E06FF0010253101AEB06004CEB7C
:10085000085110EB0A0041EB0B01BDE8F04D00F030
:100860006EBAC1F30A52C1F3130140F2FF3341F4EF
:1008700080119A4202DA00200146704740F2334369
:100880009A42A2F2334202DC5242FFF794BDFFF7D4
:1008900083BD000030B5041E71F1000404DB4FF08D
:1008A0000044404264EB0101141E73F1000405DBB7
:1008B0001C464FF00043524263EB0403994208BFC9
:1008C000904230BD064C074D06E0E06840F0010361
:1008D00094E8070098471034AC42F6D3FFF758FC71
:1008E00010C5000830C50008202A06DBCB17203AC7
:1008F00041FA02F043EAE07306E041FA02F3D04025
:10090000C2F12002914008431946704700487047E1
:100910000CC5000810B50446FFF7F8FF0068005D3D
:1009200000F0010010BD00002DE9FF4F087881B0F4
:100930009946FF2805D0491C2D2804D00024002307
:1009400008E000230BE00124F9E703EB830300EB4D
:100950004303491C0878FF28F7D104B15B4200200B
:100960000090147801462D2C01D02B2C04D1521C60
:100970002D2C12D00024009400251678FF2E0ED0C6
:100980000A24A0FB04C801FB0481002700FB071117
:10099000521C16EB0C006941EFE70124EBE7994488
:1009A00050EA01020ED00024AA4D2646DFF8A882A4
:1009B00000F030FA82468B46B9F1000009DAC9F13D
:1009C00000071BE001980021C0E9001105B0BDE857
:1009D000F08F074612E0F80707D022462B46304634
:1009E0004146FFF75DFE0646884622462B461046E6
:1009F0001946FFF755FE04460D467F10002FEAD139
:100A0000B9F1000F324643465046594602DAFFF725
:100A1000B9FE01E0FFF744FE009A0AB181F00041FF
:100A2000019AC2E90001D1E72DE9FF4F1F468DB0C1
:100A3000D7E901464FF0FF382E2045464FF0000918
:100A40000B90B9696D1C0E988847396A82468847B1
:100A50000028F6D1BAF1FF3F0AD024F4D064002E6A
:100A600011DDBAF12B0F08D0BAF12D0F0BD102E036
:100A7000404611B0ABE744F48064B9696D1C0E9830
:100A800088478246761E6946600501D52D2000E024
:100A90002B208DF8000001F1010B0DF1200809E079
:100AA000B9696D1C0E98884782460F9844F400740B
:100AB000761E0560002E02DDBAF1300FF0D00B99E2
:100AC0008A453ED144F0800406E00F99681CA9F1E4
:100AD000010944F400740860B9696D1C761E0E9813
:100AE000884782463028F0D02BE00B998A4505D103
:100AF000200603D444F08004761E18E0504603F02C
:100B0000B1FE08B30DF11301761E44F400748B4559
:100B100008D2AAF130000BF8010B200607D5A9F185
:100B2000010003E0200602D409F101008146A0057E
:100B300002D50F99681C0860B9696D1C0E9888472A
:100B40008246002ED1DC53E0002E51DDBAF1650F54
:100B500002D0BAF1450F4BD1A00549D5B9696D1C3A
:100B600024F44074761E0E9888478246002E0CDDD1
:100B70002B2804D0BAF12D0F07D144F48074B96941
:100B80006D1C0E9888478246761EE00501D52D2102
:100B900000E02B2108F8011BCDF82C8021E00DF19D
:100BA0002901761E44F4007488450CD2AAF1300065
:100BB00010F0FF0088F8000002D10B99884509D990
:100BC00008F1010806E0E00501D5244801E042F201
:100BD0000F708146B9696D1C0E98884782460F9840
:100BE0000560002E04DD504603F03CFE0028D6D1FF
:100BF000F9690E988847FF208BF8000088F80000FC
:100C00000020069007904B466A4608A906A8FFF701
:100C10008BFEA00502D46FF001002AE714F0240F28
:100C20000AD0E00714D1DDE906123868031D3B60E5
:100C30000068C0E900120BE0DDE90601FFF77AFB6E
:100C40000146E00704D13868021D3A60006801607F
:100C500028460EE7000024400000F03FF1D8FFFFD7
:100C6000426842B1016811F8013B23B1521EC0E94C
:100C70000012184670470121C160881E7047426803
:100C80005AB1C368016843B983688B4205D0491ED5
:100C9000521CC0E90012002070474FF0FF3070472F
:100CA0002DE9F05F82460078002715468B460AF151
:100CB0000104B946302801D09DB113E014F8010BAE
:100CC0000127782803D0582801D045B10AE00DB19A
:100CD000102D07D10027102514F8010B02E008257C
:100CE00000E00A250026B0460EE005FB080005FBE3
:100CF00006F1012701EB10461FFA80F8B6F5803F98
:100D000000D3B94614F8010B294600F075F8002805
:100D1000EBDABBF1000F05D00FB1641E00E05446C2
:100D2000CBF80040B9F1000F06D003F09DFC022182
:100D30000160C81EBDE8F09F48EA0640FAE710B51A
:100D4000141E73F1000408DA401C41F100019218EE
:100D50005B411A4301D120F0010010BD2DE9F04D97
:100D600092469B4611B1B1FA81F202E0B0FA80F2EC
:100D700020329046FFF710FB04460F4640EA0A0077
:100D800041EA0B0153465A46084313D0114653EA31
:100D9000010019D0C8F140025046FFF70CFB054690
:100DA0000E46504659464246FFF7F6FA084305D02C
:100DB000012004E020463946BDE8F08D00200543BF
:100DC00046EAE0762C4337430A986305E40AA0EB31
:100DD00008000022FD0A44EA47540A3002D50020E8
:100DE0000146E9E7010510196941DDE908450019E7
:100DF0006941BDE8F04DA2E73A2800D2303820F032
:100E00002002412A01D3A2F13700884201D34FF0DA
:100E1000FF3070470EB540F2334202920022CDE916
:100E200000221346FFF79AFF03B000BD00BFFEE7A4
:100E300010B5024800F08EFA10BD000098020020A4
:100E400010B5024800F086FA10BD0000F80200203C
:100E500010B5024800F07EFA10BD0000D801002055
:100E600010B5024800F076FA10BD000038020020EC
:100E70000146087810381823B0FBF3F20848805C6C
:100E8000C865032A05D908686FF30900001D886545
:100E900003E008686FF309008865886D70470000FB
:100EA000F4510008014600208A6A8B69CBB932B13F
:100EB000012A0DD0022A03D0032A10D10EE000BF70
:100EC000CB6A03F08073B3F1807F00D1012007E08B
:100ED000CB6AB3F1C07F00D1012001E000E000BF88
:100EE00034E08B69B3F5005F1AD132B1012A07D023
:100EF000022A03D0032A11D10AE000BF01200EE02C
:100F0000CB6A03F08073B3F1807F00D1012006E04B
:100F1000CB6AB3F1C07F00D1012000E000BF15E033
:100F200032B1012A05D0022A04D0032A0CD103E0F1
:100F300000BF00BF012008E0CB6A03F08073B3F16B
:100F4000807F00D1012000E000BF00BF704730B5B6
:100F50000468246824F4802405682C6004686360B5
:100F60008468402C04D10468A2600468E16003E056
:100F70000468A1600468E26030BD0000F0EE400A41
:100F8000DFED131A80EEA12AFDEEC21A11EE901ABF
:100F900064224A4301EE902AF8EEE11A70EEE11A5B
:100FA000B0EE611ADFED0B1A81EE212A01EE901AE4
:100FB000F8EEE11A72EE211AB0EE610A532801D060
:100FC000572803D1F1EE401AB0EE610A70470000D5
:100FD0000000C84200007042704710B5102000F0B9
:100FE000E3FB10BD10B5202000F0DEFB402000F038
:100FF000DBFB802000F0D8FB10BD72B600BFFEE71F
:1010000010B50246B02A05DBF72A03DCA12901DB73
:10101000FE2902DD4FF6FF7010BDA1F1A100A2F183
:10102000B003C3EB031404EB431300EB430080B2A3
:10103000F2E770B504460D4641F66F20844201D9AF
:10104000012070BD4FF4801000EB44162022314681
:10105000284602F01BFD0020F3E708B504229104A6
:10106000684602F013FD9DF80000FF280BD19DF8A3
:101070000100FF2807D19DF80200FF2803D19DF849
:101080000300FF2801D0012008BD0020FCE700007C
:10109000014890ED020A704758070020014890ED82
:1010A000010A70475807002010B514210448FFF7C3
:1010B000D1F84FF480620349034801F099FB10BD59
:1010C0005807002058030020480100202DE9F04F68
:1010D0002DED048BA1B081469FED620AB0EE408AEF
:1010E0009FED600AF0EE408A4FF04E0A4FF0450B3C
:1010F0005DA14846FFF7B9F8054625B95CA1484609
:10110000FFF7B3F8054625B921B0BDEC048BBDE867
:10111000F08F0A212846FFF7BAF807460FB1781B6F
:1011200002E02846FFF7BDF88046B8F1800F01D3F2
:101130004FF07F084246294601A8FFF772F80020C9
:1011400001A901F8080001A8FFF7ABF8441E03E06D
:10115000002001A90855641E002C07DB01A8005DD2
:101160000D28F5D001A8005D0A28F1D042A101A800
:10117000FFF79EF80646002454E0A01E05284AD238
:10118000DFE800F003151C2E35003046FFF789F824
:1011900060B1304603F06CFAB0EE409AF0EE609A1F
:1011A00051EC190BFFF7C6F808EE100A33E0304691
:1011B000FFF777F808B196F800A02CE03046FFF76B
:1011C00070F860B1304603F053FAB0EE409AF0EE9A
:1011D000609A51EC190BFFF7ADF808EE900A1AE08F
:1011E0003046FFF75EF808B196F800B013E03046DD
:1011F000FFF757F870B13046FFF77CF8012804D0AC
:101200003046FFF777F8022801D1012000E00020E6
:101210001A49487400BF00BF17A10020FFF748F823
:101220000646641C0A2C01DA002EA6D1B5EEC08A4F
:10123000F1EE10FA07D05046B0EE480AFFF79EFED6
:101240000E4880ED020AF5EEC08AF1EE10FA07D0E2
:101250005846B0EE680AFFF791FE084880ED010A93
:1012600000BF51E70000000024474E4747410000FF
:1012700024475047474100002C0000005807002039
:1012800070B50446A56D00F0A5FB064694F8350040
:10129000022808D08020606500BF002084F8340058
:1012A00000BF012070BD2068006820F01600216892
:1012B00008602068406920F0800021684861206C47
:1012C00008B9A06C28B12068006820F008002168E7
:1012D00008602068006820F001002168086010E0C4
:1012E00000F078FB801B05280BD9202060650320C7
:1012F00084F8350000BF002084F8340000BF0320CC
:10130000D0E72068006800F001000028E8D194F8D8
:101310005C103F208840A860012084F8350000BFA1
:10132000002084F8340000BF00BFBBE7014691F8FD
:101330003500022803D08020486501207047052031
:1013400081F835000868006820F001000A68106024
:101350000020F3E7F8B50446002000908C480068B0
:101360004FF41651B0FBF1F7A56D2E6894F85C10A0
:1013700008208840304098B12068006800F00400E0
:1013800070B12068006820F004002168086094F8BB
:101390005C1008208840A860606D40F00100606526
:1013A00094F85C1001208840304068B120684069A2
:1013B00000F0800040B194F85C1001208840A860E3
:1013C000606D40F00200606594F85C100420884075
:1013D000304068B12068006800F0020040B194F825
:1013E0005C1004208840A860606D40F004006065D7
:1013F00094F85C1010208840304078B32068006872
:1014000000F0080050B394F85C1010208840A860E9
:101410002068006800F4802080B12068006800F433
:10142000002028B9206CC8B12046216C884715E0FF
:10143000A06C98B12046A16C88470FE02068006836
:1014400000F4807028B92068006820F00800216846
:101450000860206C10B12046216C884794F85C101D
:10146000202088403040002865D02068006800F0C7
:10147000100000285FD094F85C1020208840A860FD
:1014800094F83500052828D12068006820F016005F
:10149000216808602068406920F080002168486168
:1014A000206C08B9A06C28B12068006820F0080002
:1014B0002168086094F85C103F208840A8600120F3
:1014C00084F8350000BF002084F8340000BF206D90
:1014D00010B12046216D8847F8BD2068006800F4EF
:1014E000802080B12068006800F4002028B9606C7A
:1014F00010B12046616C88471DE0E06BD8B12046F2
:10150000E16B884717E02068006800F4807068B9D4
:101510002068006820F0100021680860012084F82D
:10152000350000BF002084F8340000BFE06B10B12C
:101530002046E16B8847606D38B3606D00F00100B4
:10154000F0B1052084F835002068006820F0010023
:101550002168086000BF0098401C0090B84200D984
:1015600005E02068006800F001000028F3D100BF0A
:10157000012084F8350000BF002084F8340000BF4B
:10158000E06C10B12046E16C884700BFA4E7000082
:101590000C0000202DE9F0410446002500F01AFA65
:1015A000074614B90120BDE8F081606A00B100BFB0
:1015B000022084F8350000BF002084F8340000BF0A
:1015C0002068006820F00100216808600AE000F04F
:1015D00001FAC01B052805D920206065032084F886
:1015E0003500E0E72068006800F001000028EED137
:1015F0002068056821480540D4E901010843E168F5
:1016000008432169084361690843A1690843E16906
:101610000843216A08430543606A042803D1D4E9DA
:101620000B0108430543206805602068456925F0E3
:101630000705606A0543606A04280DD1A06A054366
:10164000E06A48B12046FFF72DFC28B140206065D4
:10165000012084F83500A6E7206845612046FFF7A1
:1016600007FC064694F85C103F208840B0600020DC
:101670006065012084F83500002094E73F8010F079
:101680002DE9F04704460D4616461F464FF0000868
:10169000D4F8589000BF94F83400012802D10220F9
:1016A000BDE8F087012084F8340000BF94F83500CD
:1016B000012825D1022084F83500002060653B46D2
:1016C000324629462046FFF742FC94F85C103F2042
:1016D0008840C9F808002068006840F016002168BA
:1016E0000860206C28B12068006840F0080021687C
:1016F00008602068006840F001002168086006E08A
:1017000000BF002084F8340000BF4FF002084046BC
:10171000C6E7000070B5044600F05CF906462546B1
:10172000681C10B104480078054400BF00F052F96D
:10173000801BA842FAD370BD0800002070B5054692
:1017400000F048F90646002425E004EB4400144963
:1017500031F81000A8421DD104EB440001EB400019
:101760004088301A1E2814D904EB44010C4A02EBBD
:1017700041014E8004EB440032F81010094800F09B
:101780001BF930B9601C04EB4401054A02EB41012E
:10179000087102E0641C042CD7DB00BF70BD0000A0
:1017A000580000200014024010B5044604480068A8
:1017B000204020B1024804602046FFF7BFFF10BD63
:1017C000143C0140F8B502460B46002500240020D9
:1017D0000021D6E0012606FA01F51E6806EA050496
:1017E000AC4274D11E7906F00306012E04D01E7996
:1017F00006F00306022E13D190684F000326BE4068
:10180000B0434F00DE68BE40304390605068012610
:101810008E40B0431E79C6F300168E4030435060B0
:101820001E7906F00306032E09D0D0684F00032668
:10183000BE40B0434F009E68BE403043D0601E792A
:1018400006F00306022E13D1CF0802F1200656F847
:1018500027004E07F70E0F26BE40B0434F07FF0E7E
:101860001E69BE403043CF0802F1200646F827002B
:1018700010684F000326BE40B0431E7906F00306F1
:101880004F00BE40304310605E6806F44036002EC4
:1018900076D000BF002600963C4E366846F480465F
:1018A0003A4F3E603E46366806F48046009600BFDA
:1018B00000BF374E8F0856F827008E07370F0F26C8
:1018C000BE40B043334EB24202D1002624E057E07E
:1018D000314EB24201D101261EE0304EB24201D15A
:1018E000022619E02E4EB24201D1032614E02D4EFD
:1018F000B24201D104260FE02B4EB24201D105269F
:101900000AE02A4EB24201D1062605E0284EB24234
:1019100001D1072600E008268F073F0FBE40304365
:101920001B4E8F0846F82700224E3068A0435E68A1
:1019300006F4801606B120431E4E3060361D306816
:10194000A0435E6806F4001606B12043194E361D0A
:101950003060184E361F3068A0435E6806F40036CB
:1019600006B12043134E361F3060361F3068A04347
:101970005E6806F4803606B120430E4E083E3060A5
:10198000491C1029FFF426AFF8BD0000443802407E
:1019900008380140000002400004024000080240F4
:1019A000000C0240001002400014024000180240E7
:1019B000001C0240083C0140024613690B400BB179
:1019C000012000E0002070470AB1816101E00B04B2
:1019D00083617047014800687047000000000020E4
:1019E00070B504460CB9012070BD94F83D0028B9CB
:1019F000002084F83C00204600F08CF9242084F874
:101A00003D002068006820F001002168086020681F
:101A1000006840F40040216808602068006820F4F5
:101A200000402168086000F05BFB05465C49606887
:101A3000884206D85B48854201D2012007E0002099
:101A400005E05948854201D2012000E0002001282C
:101A500000D1C9E75548B5FBF0F62068406820F092
:101A60003F003043216848604D496068884201D892
:101A7000701C07E04FF4967070434FF47A71B0FB1E
:101A8000F1F0401C2168096A21F03F0108432168F8
:101A9000086243496068884214D8681E616849003A
:101AA000B0FBF1F0401CC0F30B00042801D204206D
:101AB0003DE0681E61684900B0FBF1F0401CC0F3D6
:101AC0000B0034E0A06838B9681E616801EB410181
:101AD000B0FBF1F0401C0AE0681E616801EBC10236
:101AE00002EB0111B0FBF1F0401C40F48040C0F368
:101AF0000B0008B901201AE0A06848B9681E6168A7
:101B000001EB4101B0FBF1F0401CC0F30B000CE015
:101B1000681E616801EBC10202EB0111B0FBF1F03C
:101B2000401CC0F30B0040F4804040F400402168AA
:101B3000C9694CF6FF72914308432168C861D4E932
:101B4000070108432168096821F0C00108432168A2
:101B50000860D4E9031008432168896848F2FF321D
:101B60009143084321688860D4E90501084321684E
:101B7000C96821F0FF0108432168C8602068006837
:101B800040F001002168086000202064202084F8D3
:101B90003D000020206384F83E0000BF24E70000E1
:101BA000A086010080841E0000093D0040420F0015
:101BB0002DE9FC5F04460F4690469946DDE90CABE3
:101BC0000E9EFFF707FF054694F83D0020287DD1C3
:101BD000192301224D492046009501F024FB10B144
:101BE0000220BDE8FC9F00BF94F83C00012801D111
:101BF0000220F6E7012084F83C0000BF206800685E
:101C000000F0010028B92068006840F00100216858
:101C100008602068006820F40060216808602120C6
:101C200084F83D00402084F83E0000202064C4F881
:101C300024A0A4F82AB0608D20853548E0624B4688
:101C4000424639462046CDE9006501F049FA08B11F
:101C50000120C6E731E02A463146204601F0BFFBAD
:101C600050B1206C042805D12068006840F4007051
:101C7000216808600120B4E7606A00782168086183
:101C8000606A401C6062208D401E2085608D401E71
:101C9000608520684069C0F3800070B1208D60B11C
:101CA000606A007821680861606A401C6062208D6B
:101CB000401E2085608D401E6085208D0028CAD181
:101CC0002A463146204601F07BFA00E01CE050B184
:101CD000206C042805D12068006840F40070216859
:101CE000086001207DE72068006840F400702168EA
:101CF0000860202084F83D00002084F83E0000BFEA
:101D000084F83C0000BF6CE702206AE70200100084
:101D10000000FFFF10B586B00446142101A8FEF7AD
:101D200099FA1B49206888422FD100BF00200090FB
:101D30001848006840F0020016490860084600682C
:101D400000F00200009000BF00BFC02001901220F0
:101D5000029000200390032004900420059001A924
:101D60000D48FFF72FFD00BF0020009009481030FC
:101D7000006840F400100749103108600846006808
:101D800000F40010009000BF00BF06B010BD0000BE
:101D9000005400403038024000040240034800680C
:101DA0000349097808440149086070470000002091
:101DB0000800002010B50D48006840F400700B4981
:101DC00008600846006840F48060086008460068C3
:101DD00040F480700860032000F0A6F80F2000F0A7
:101DE00007F800F02BF8002010BD0000003C024076
:101DF00070B504460E4800784FF47A71B1FBF0F0EC
:101E00000C490968B1FBF0F5284600F0D7FC08B191
:101E1000012070BD102C07D200222146501E00F078
:101E200045F80548046001E00120F2E70020F0E7F2
:101E3000080000200C0000200400002008B500BFAE
:101E4000002000900E48006840F480400C49086073
:101E50000846006800F48040009000BF00BF00BF4B
:101E600000200090081F006840F08050091F0860A3
:101E70000846006800F08050009000BF00BF08BD19
:101E8000443802400146084600280DDB00BF00BF71
:101E900000F01F0301229A4043099B0003F1E02355
:101EA000C3F8002100BF00BF00BF70472DE9F05FFD
:101EB00080460D461646002702F0BAFB0746394613
:101EC0002A46334601F00700C0F1070ABAF1040FB1
:101ED00002D94FF0040A01E0C0F1070AD14600F12F
:101EE000040ABAF1070F02D24FF0000A01E0A0F194
:101EF000030AD4464FF0010A0AFA09FAAAF1010AC4
:101F00000AEA020A0AFA0CFA4FF0010B0BFA0CFB70
:101F1000ABF1010B0BEA030B4AEA0B0421464046E6
:101F200002F08EFBBDE8F09F00BF00F00702064BF9
:101F300019684FF6FF031940044B0B4343EA022193
:101F4000014B196000BF70470CED00E00000FA057E
:101F500070B504460D460CB9012070BD58480068A4
:101F600000F00700A84209D255490D7008460068E4
:101F700000F00700A84201D00120EEE7207800F031
:101F8000020002281DD1207800F00400042805D1A9
:101F90004C48006840F4E0504A490860207800F05E
:101FA0000800082805D14748006840F460404549CA
:101FB00008604448006820F0F000A16808434149E7
:101FC0000860207800F00100A8B36068012807D1FC
:101FD0003C4808380068C0F34040B8B90120BCE76D
:101FE0006068022802D06068032807D135480838A5
:101FF0000068C0F3406048B90120AEE731480838B6
:102000000068C0F3400008B90120A6E72D48006829
:1020100020F00300616808432A490860FFF7DAFCF2
:10202000064609E0FFF7D6FC801B41F28831884262
:1020300002D9032091E707E02248006800F00C0075
:102040006168B0EB810FEDD11D48006800F007001A
:10205000A84209D91A490D700846006800F0070027
:10206000A84201D0012078E7207800F0040004287D
:1020700007D11448006820F4E050E1680843114992
:102080000860207800F00800082808D10D48006892
:1020900020F46040216940EAC1000A49086000F06C
:1020A0003FF808490968C1F30311074A515CC84069
:1020B0000649086006480068FFF79AFE00204CE7D2
:1020C000003C024008380240FC5100080C0000208F
:1020D0000400002001480068704700000C00002048
:1020E00000B5FFF7F7FF04490968C1F38221034AED
:1020F000515CC84000BD0000083802400C52000886
:1021000000B5FFF7E7FF04490968C1F34231034A0C
:10211000515CC84000BD0000083802400C52000865
:102120002DE9F047002400250026A1462548006837
:1021300000F00C0020B1042805D008283AD105E0B1
:10214000DFF8849039E0DFF8849036E01D48001F06
:10215000006800F03F041B48001F006800F4800086
:1021600078B11A481749091F0968C1F38811A0FB03
:1021700001700146224600233846FEF721F8054645
:102180000EE011480F49091F0968C1F38811A0FB2F
:1021900001700146224600233846FEF711F8054635
:1021A0000848001F0068C0F30140401C4600B5FB12
:1021B000F6F902E0DFF8109000BF00BF4846BDE826
:1021C000F0870000083802400024F40000127A0072
:1021D000F8B504460CB90120F8BD207800F00100E4
:1021E000002874D0F948006800F00C0004280DD0D5
:1021F000F648006800F00C00082813D1F348001FCF
:10220000006800F48000B0F5800F0BD1EF4808386B
:102210000068C0F34040002859D06068002856D1BB
:102220000120D9E700BF6068B0F5803F08D1E748DA
:102230000838006840F48030E449083908601EE03E
:102240006068B0F5A02F0DD1E0480838006840F470
:102250008020DE49083908600846006840F4803074
:1022600008600CE0D9480838006820F48030D7496D
:10227000083908600846006820F48020086000BF24
:10228000606890B1FFF7A6FB054606E0FFF7A2FBEA
:10229000401B642801D903209EE7CC480838006819
:1022A000C0F340400028F1D011E0FFF793FB054652
:1022B00006E0FFF78FFB401B642801D903208BE762
:1022C000C24808380068C0F340400028F1D12078A7
:1022D00000F0020002285FD1BC48006800F00C004A
:1022E00058B1BA48006800F00C0008281CD1B74863
:1022F000001F006800F48000B0B9B44808380068D6
:10230000C0F3400020B1E068012801D0012063E75C
:10231000AE480838006820F0F800216940EAC100A2
:10232000AA490839086037E0E06800B30120A849ED
:102330000860FFF74FFB054606E0FFF74BFB401B2D
:10234000022801D9032047E7A04808380068C0F3F5
:1023500040000028F1D09D480838006820F0F800BF
:10236000216940EAC10099490839086014E0002059
:1023700097490860FFF72EFB054606E0FFF72AFBAA
:10238000401B022801D9032026E79048083800683E
:10239000C0F340000028F1D1207800F008000828A0
:1023A0002CD16069A8B101208A490860FFF712FBAF
:1023B000054606E0FFF70EFB401B022801D903206B
:1023C0000AE782486C300068C0F340000028F1D072
:1023D00014E000207F490860FFF7FCFA054606E09C
:1023E000FFF7F8FA401B022801D90320F4E67748EA
:1023F0006C300068C0F340000028F1D1207800F074
:102400000400042870D1002770483830006800F0BC
:10241000805090B900BF002000906C4838300068B0
:1024200040F080506949383108600846006800F083
:102430008050009000BF00BF01276748006800F48B
:102440008070B0B96448006840F4807062490860E8
:10245000FFF7C0FA054606E0FFF7BCFA401B02286A
:1024600001D90320B8E65C48006800F480700028B9
:10247000F2D000BFA068012808D154486830006835
:1024800040F001005149683108601DE0A06805284E
:102490000DD14E486830006840F004004B49683167
:1024A00008600846006840F0010008600CE04748FA
:1024B0006830006820F0010044496831086008462F
:1024C000006820F00400086000BFA068A8B1FFF712
:1024D00081FA054609E0FFF77DFA401B41F2883199
:1024E000884202D9032077E626E038486830006841
:1024F000C0F340000028EED013E0FFF76BFA05466A
:1025000008E0FFF767FA401B41F28831884201D9A1
:10251000032061E62D4868300068C0F340000028C1
:10252000EFD1012F07D129483830006820F08050C2
:1025300026493831086000BFA069002845D02348EB
:10254000006800F00C0008285DD0A069022845D181
:1025500000201F490866FFF73DFA054606E0FFF731
:1025600039FA401B022801D9032035E617480838FC
:102570000068C0F340600028F1D1D4E907010843A6
:10258000616A40EA81110122A06AC2EB500041EA6F
:1025900000412C20005D41EA00600C49091F0860E1
:1025A00001200B490866FFF715FA054606E0FFF71C
:1025B00011FA401B022801D903200DE60348083810
:1025C0000068C0F340600028F1D049E008380240BC
:1025D00000004742800E4742007000400020214921
:1025E0000866FFF7F7F9054606E0FFF7F3F9401B29
:1025F000022801D90320EFE51B480068C0F34060C2
:102600000028F2D12CE0A069012800D1E4E51648A9
:10261000001D0668A069012820D006F48001E06949
:1026200081421BD106F03F01206A814216D147F654
:10263000C0703040616AB0EB811F0FD106F44031A9
:102640000122A06AC2EB5000B1EB004F06D106F0A8
:1026500070612C20005DB1EB006F01D00120BBE563
:102660000020B9E5000047420038024010B504469A
:102670000CB9012010BD606A38B96068B0F5827F7E
:1026800000D105E00021E16102E0002121616161EA
:102690000021A16294F8510028B9002084F850006C
:1026A000204600F047F8022084F8510020680068B6
:1026B00020F0400021680860A08800F48270218921
:1026C00001F404410843A18901F400610843217C1D
:1026D00001F002010843217D01F001010843218B33
:1026E00001F400710843217F01F0380108432021E3
:1026F000095D01F080010843218D01F40051084378
:10270000216808600421A06901EA104094F82410AF
:1027100001F010010843216848602068C06920F476
:1027200000602168C86100206065012084F85100C4
:1027300000209FE710B586B00446142101A8FDF7DC
:1027400089FD1B49206888422FD100BF00200090DE
:102750001848006840F48050164908600846006830
:1027600000F48050009000BF00BF00BF0020009028
:1027700010481438006840F002000E49143908600F
:102780000846006800F00200009000BF00BF38203B
:102790000190022002900020039003200490052065
:1027A000059001A90448FFF70DF806B010BD000020
:1027B00000300140443802400004024070B5044635
:1027C0002546681EB0F1807F01D301200FE0681E0E
:1027D0004FF0E02148610F214FF0FF3001F030FF52
:1027E00000204FF0E021886107200861002070BDC3
:1027F000F8B504460D46164694F8420020282DD11F
:1028000005B10EB90120F8BD0120206300206063EE
:1028100032462946204601F04FFD0746206B01282D
:1028200019D100BF00200090206800680090206847
:102830004068009000BF00BF00BF00BF21680C319E
:1028400051E8001F41F0100021680C3141E80002FE
:10285000002AF3D100E001273846D4E70220D2E76E
:10286000F0B52DED048BCBB006460C46FF2C01D203
:10287000204600E0FF2007463A463D490BA8FDF7F9
:10288000D0FC00200BA9C8554FF480623849394864
:10289000FFF7AEFF0BA8FEF719FC374930688842F6
:1028A00062D1012C16DD35480078742812D1601EE3
:1028B000FF2800DA00E0FF2085B22A462F49491C94
:1028C0002F48FDF7AEFC00202D49485501202D4929
:1028D00008703EE0002C3CDD28480078672838D19D
:1028E00029480078401C28490870084600780328C9
:1028F00001DB032008702548234A127800EBC20050
:1029000090ED010A10EE101A0846FDF700FD41ECAB
:10291000180B1E481C4A127800EBC20090ED000A0A
:1029200010EE101A0846FDF7F2FC41EC190B8DED84
:10293000008B53EC192B16A103A801F065FE03A828
:10294000FDF7AFFC85B264232A4603A9144800F0C2
:10295000FFFA4FF480710948FDF77CFC4FF4807258
:1029600006490F48FFF744FF4BB0BDEC048BF0BDA8
:102970005803002048010020004400406C0700205C
:102980006C0800204800002049000020280000209A
:1029900067252E36662C252E36660D0A00000000AF
:1029A00090010020704700002DE9F84F0446206890
:1029B00005682068C668206847694FF00009CA4664
:1029C00005F00F09B9F1000F0AD105F0200038B168
:1029D00006F0200020B1204601F0DAFABDE8F88FB9
:1029E000B9F1000F7CD007F0010018B906F490701F
:1029F000002875D005F0010030B106F4807018B1E0
:102A0000606C40F00100606405F0040030B107F034
:102A1000010018B1606C40F00200606405F0020033
:102A200030B107F0010018B1606C40F00400606440
:102A300005F0080048B106F0200010B907F00100C9
:102A400018B1606C40F008006064606C002846D0EB
:102A500005F0200028B106F0200010B1204601F05A
:102A600097FA20684069C0F3801A606C00F0080093
:102A700010B9BAF1000F2DD0204601F030FA2068CD
:102A8000406900F04000402820D100BF00BF21680D
:102A9000143151E8001F21F040002168143141E851
:102AA0000002002AF3D100BFE06B50B17F48E16B18
:102AB0000865E06BFEF73AFC88B1E06B016D884772
:102AC0000DE02046FFF76EFF09E009E02046FFF722
:102AD00069FF04E02046FFF765FF002060647DE7A2
:102AE000206B012878D105F01000002874D006F082
:102AF00010000028FAD000BF002000902068006875
:102B0000009020684068009000BF00BF20684069C6
:102B100000F04000402870D1E06B006840681FFA68
:102B200080F8B8F1000F58D0A08D404555DDA4F8CD
:102B30002E80E06BC069B0F5807F43D000BF00BF3E
:102B400021680C3151E8001F21F4807021680C319C
:102B500041E80002002AF3D100BF00BF00BF216896
:102B6000143151E8001F21F001002168143141E8BF
:102B70000002002AF3D100BF00BF00BF216814315A
:102B800051E8001F21F040002168143141E80002A3
:102B9000002AF3D100BF202084F8420000202063E7
:102BA00000BF00BF21680C3151E8001F21F0100068
:102BB00021680C3141E80002002AF3D100BFE06B2C
:102BC000FEF75EFB02206063A08DE28D801A81B269
:102BD0002046FFF745FE0EE052E0A08D40450AD1A9
:102BE000E06BC069B0F5807F05D102206063A18DE4
:102BF0002046FFF735FEF1E6FFE7A08DE18D401A94
:102C00001FFA80F8E08DD0B3B8F1000F37D000BFC5
:102C100000BF21680C3151E8001F21F49070216839
:102C20000C3141E80002002AF3D100BF00BF00BF11
:102C30002168143151E8001F21F00100216814318E
:102C400041E80002002AF3D100BF202084F84200AE
:102C50000020206300BF00BF21680C3151E8001F35
:102C600021F0100021680C3141E80002002AF3D164
:102C700000BF0220606341462046FFF7F1FDADE64C
:102C800005F0800030B106F0800018B1204601F058
:102C90007FFBA3E605F0400030B106F0400018B11C
:102CA000204601F052F999E600BF97E6A53D0008DD
:102CB00010B504460CB9012010BDA06900B100E0B8
:102CC00000BF94F8410028B9002084F84000204655
:102CD00000F02AF8242084F841002068C06820F41D
:102CE00000502168C860204601F0D0F920680069D2
:102CF00020F49040216808612068406920F02A0093
:102D0000216848612068C06840F400502168C860AC
:102D100000206064202084F8410084F842000020F4
:102D2000606300BFC8E7000010B586B004461421F8
:102D300001A8FDF78FFA7B492068884276D100BF51
:102D4000002000907848006840F010007649086044
:102D50000846006800F01000009000BF00BF00BFF0
:102D60000020009070481438006840F001006E495F
:102D7000143908600846006800F00100009000BFA8
:102D800000BF4FF4C0600190022002900020039029
:102D9000032004900720059001A96448FEF712FD66
:102DA0006348644908604FF0006048600021614852
:102DB0008160C1604FF480610161002141618161E6
:102DC000C16101624162FEF7E5FB08B1FEF715F94A
:102DD00000BF5848E063846300BF554878305649C7
:102DE00008604FF000604860402153488160002136
:102DF000C1604FF480610161002141618161C16165
:102E000001624162FEF7C6FB08B1FEF7F6F800BFAB
:102E10004948A063846300BF002211462520FFF7C4
:102E200045F82520FFF72EF87AE0FFE743492068B0
:102E3000884275D100BF002000903B48001F006809
:102E400040F400303849091F08600846006800F463
:102E50000030009000BF00BF00BF0020009032484B
:102E60001438006840F001002F4914390860084602
:102E7000006800F00100009000BF00BF0C2001902E
:102E80000220029000200390032004900720059068
:102E900001A92648FEF796FC29482A4908604FF008
:102EA00000604860002127488160C1604FF4806164
:102EB0000161002141618161C16101624162FEF7EE
:102EC00069FB08B1FEF799F800BF1E48E063846310
:102ED00000BF1B4818301C4908604FF00060486074
:102EE0004021194881600021C1604FF48061016177
:102EF000002141618161C16101624162FEF74AFBCB
:102F000008B1FEF77AF800BF0F48A063846300BFE2
:102F1000002211462620FEF7C9FF2620FEF7B2FF49
:102F200006B010BD001001404438024000000240CD
:102F300040640240D80100203802002000440040D4
:102F40008860024098020020F80200207047704715
:102F50002DE9F84F04460E46174699464FF0000AF1
:102F600094F84100202850D106B117B90120BDE8DE
:102F7000F88F00206064212084F84100FEF72AFDCC
:102F80008246A784E784A068B0F5805F04D12069F9
:102F900010B90025B04602E035464FF000081EE0AB
:102FA0005346002280212046CDF8009001F020FAFF
:102FB00020B1202084F841000320D8E745B9B8F8B3
:102FC0000000C0F308002168486008F1020803E02F
:102FD0002878216848606D1CE08C401EE084E08CFD
:102FE0000028DDD15346002240212046CDF8009034
:102FF00001F0FEF920B1202084F841000320B6E75B
:10300000202084F841000020B1E70220AFE770479C
:10301000F0B5034600203FE0082804DA0025C0F19F
:103020000707FEB203E00125C0F10F07FEB201273A
:10303000B740FCB200270F54BC4600F1100701F85E
:1030400007C0002224E005EB4207DF5D27403FB1C7
:103050000F5C4FF0010C0CFA02FC47EA0C070F540E
:1030600002F1080705EB4707DF5D274077B100F164
:103070001007CF5D4FF0010C0CFA02FC47EA0C0779
:1030800007F0FF0C00F1100701F807C0571CFAB257
:10309000082AD8DB471CF8B21028BDDBF0BD00BF02
:1030A000FEE7014608684069C0F38020B0B16FF4C4
:1030B00080600A68506100200863202081F83D008C
:1030C000002081F83E00086C40F00400086400BF56
:1030D000002081F83C0000BF012070470020FCE781
:1030E0002DE9F8430446884615469946DDE9086708
:1030F0002068006840F48070216808603346002230
:103100004FF001112046009700F08DF860B1206863
:10311000006800F48070B0F5807F02D14FF4007039
:1031200020640320BDE8F88308F0FE0021680861F0
:103130003B4632462149204600F0D4F808B1012030
:10314000F0E700BF002000902068406900902068F0
:103150008069009000BF00BF3A463146204600F02B
:103160003EF950B1206C042805D12068006840F475
:103170000070216808600120D4E7B9F1010F03D184
:10318000E8B22168086117E0C5F3072021680861EB
:103190003A463146204600F022F950B1206C04280E
:1031A00005D12068006840F40070216808600120A3
:1031B000B8E7E8B2216808610020B3E70200010027
:1031C00070B504460D46164625E02046FFF769FF18
:1031D00008B1012070BD681CE8B1FEF7FBFB801B45
:1031E000A84200D8BDB920684069C0F3800090B9FA
:1031F00000202063202084F83D00002084F83E0059
:10320000206C40F02000206400BF002084F83C00C7
:1032100000BF0120DEE720684069C0F3800000287D
:10322000D3D00020D6E72DE9F04104460D461746DD
:103230001E46DDF8188038E0701CA8B3FEF7CAFB04
:10324000A0EB0800B04200D876BBC5F307400128C8
:103250000AD120684069A9B20840A9B2884201D1C8
:1032600001200BE0002009E020688069A9B2084035
:10327000A9B2884201D1012000E00020B84214D157
:1032800000202063202084F83D00002084F83E00C8
:10329000206C40F02000206400BF002084F83C0037
:1032A00000BF0120BDE8F081FFE7C5F3074001281A
:1032B0000AD120684069A9B20840A9B2884201D168
:1032C00001200BE0002009E020688069A9B20840D5
:1032D000A9B2884201D1012000E00020B842ABD061
:1032E0000020DFE72DE9F04104460D4616461F4653
:1032F00058E020684069C0F38020E8B12068006889
:1033000040F40070216808606FF4806021684861B3
:1033100000202063202084F83D00002084F83E0037
:10332000206C40F00400206400BF002084F83C00C2
:1033300000BF0120BDE8F081701C90B3FEF74AFB8E
:10334000C01BB04200D866BBC5F3074001280AD1B4
:1033500020684069A9B20840A9B2884201D1012081
:103360000BE0002009E020688069A9B20840A9B2FA
:10337000884201D1012000E0002090B900202063A4
:10338000202084F83D00002084F83E00206C40F0AE
:103390002000206400BF002084F83C0000BF012012
:1033A000C8E7FFE7C5F3074001280AD12068406954
:1033B000A9B20840A9B2884201D101200BE0002047
:1033C00009E020688069A9B20840A9B2884201D109
:1033D000012000E0002000288BD00020AAE770B573
:1033E00004460D46164625E02046FFF75AFE08B172
:1033F000012070BD681CE8B1FEF7ECFA801BA84202
:1034000000D8BDB920684069C0F3C01090B9002051
:103410002063202084F83D00002084F83E00206CCA
:1034200040F02000206400BF002084F83C0000BF72
:103430000120DEE720684069C0F3C0100028D3D027
:103440000020D6E708B500BF002000901E480068A5
:1034500040F480001C4908600846006800F48000C1
:10346000009000BF00BF00BF002000900846006829
:1034700040F4001008600846006800F40010009056
:1034800000BF00BF002211461020FEF70FFD1020E4
:10349000FEF7F8FC002211461120FEF707FD11206F
:1034A000FEF7F0FC002211463A20FEF7FFFC3A201E
:1034B000FEF7E8FC002211464620FEF7F7FC462006
:1034C000FEF7E0FC08BD00003038024000B587B0D0
:1034D000142102A8FCF7BEFE00BF00200190344872
:1034E000006840F02000324908600846006800F09B
:1034F0002000019000BF00BF00BF002001900846DF
:10350000006840F0800008600846006800F0800015
:10351000019000BF00BF00BF002001900846006876
:1035200040F0010008600846006800F001000190CA
:1035300000BF00BF00BF002001900846006840F0B7
:10354000020008600846006800F00200019000BF19
:1035500000BF012291031748FEF736FAF0200290CF
:103560004FF4041003900120049002A91248FEF7C2
:1035700029F94FF48040029001200390002004902C
:10358000059002A90B48FEF71DF9002211460A20FA
:10359000FEF78CFC0A20FEF775FC0022114617206E
:1035A000FEF784FC1720FEF76DFC07B000BD00009D
:1035B00030380240000402400014024010B50B48AD
:1035C0000B4908600B484860002109488160C160D0
:1035D0004FF480410161002141618161C16101625B
:1035E000FEF7FEF908B1FDF708FD10BD00540040DC
:1035F0007C000020A086010010B50E480E4908602E
:103600004FF48270486000210B488160C160016105
:1036100041614FF4007181610021C1610162416229
:1036200081620A21C162FFF721F808B1FDF7E5FCCC
:1036300010BD000000300140D000002010B50B4844
:103640000B4908604FF4E130486000210848816070
:10365000C16001610C21416100218161C161FFF7FD
:1036600027FB08B1FDF7C9FC10BD000000100140A8
:103670004801002010B50B480B4908604FF4E130B9
:103680004860002108488160C16001610C214161EE
:1036900000218161C161FFF70BFB08B1FDF7ADFCB3
:1036A00010BD0000004400409001002000BFFEE774
:1036B00000BFFEE770B5002415E004F1B001C8B208
:1036C00000F0BAF9002000F0B7F9102000F0B4F9CA
:1036D000002504E0002000F0C3F9681CC5B2802D6D
:1036E000F8DB601CC4B2082CE7DB70BD10B5C82045
:1036F000FEF710F8002400BF05E00449085D00F063
:103700009BF9601CC4B2172CF7DB10BD1000002021
:1037100070B504460D4605F1B001C8B200F08CF951
:10372000102141EA141000F087F904F00F0000F0B6
:1037300083F970BD2DE9F04790B082460D461646DC
:103740001F46DDF8608039463046FDF759FC81465A
:103750004FF6FF70814509D1002404E000200DF8E8
:103760000400601CC4B2202CF8DB07E008A948461E
:10377000FDF75FFC694608A8FFF74AFC294650465A
:10378000FFF7C6FF00240FE0B8F1000F06D01DF8C8
:103790000410C943C8B200F063F903E01DF8040047
:1037A00000F05EF9601CC4B2102CEDDB681CC1B2E5
:1037B0005046FFF7ADFF002413E0B8F1000F08D02A
:1037C00004F110011DF80110C943C8B200F048F916
:1037D00005E004F110011DF8010000F041F9601C42
:1037E000C4B2102CE9DB10B0BDE8F0872DE9F0473A
:1037F00080460E4691469A46089F00250024A9F16E
:103800002000C5B2B8F17F0F02DDA046B01CC6B2E1
:10381000BAF1100F37D131464046FFF779FF002447
:1038200011E047B104EB0511274A515CC943C8B206
:1038300000F016F905E004EB0511234A505C00F096
:103840000FF9601CC4B2082CEBDB701CC1B24046FF
:10385000FFF75EFF002413E04FB104EB05110831C0
:10386000194A515CC943C8B200F0FAF806E004EB0B
:1038700005110831144A505C00F0F2F8601CC4B223
:10388000082CE9DB1DE031464046FFF741FF0024EC
:1038900015E057B105EB45010C4A02EB4101095D0A
:1038A000C943C8B200F0DCF807E005EB4501074A60
:1038B00002EB4101085D00F0D3F8601CC4B2062C95
:1038C000E7DBBDE8F08700003C5400081452000814
:1038D0002DE9F84304460E4617461D46DDF82090B4
:1038E0004FF0000822E0CDF8009017F808202B4692
:1038F00031462046FFF77AFF0C2D02D1A01DC4B23D
:1039000002E004F10800C4B27A2C04DD0C2D02D1CF
:103910000024701CC6B2782C04DD102D02D10024C6
:10392000701CC6B208F1010000F0FF0817F808008B
:103930000028D8D1BDE8F8832DE9F84380468946B0
:1039400014461E4645464F4625E02078B02812DB37
:10395000607880B1702D02DD0025B81CC7B20096DA
:103960006378227839462846FFF7E4FE05F1100017
:10397000C5B2A41C0FE0782D02DD0025B81CC7B22B
:1039800000962278102339462846FFF72FFF05F1CD
:103990000800C5B2641C20780028D6D1BDE8F883A1
:1039A0002DE9FF5F81468A4614461E464D4657461E
:1039B0003DE094F800B0BBF1800F10DA782D02DD05
:1039C0000025B81CC7B210235A463946284600962F
:1039D000FFF70CFF05F10800C5B2641C26E003A93F
:1039E000204600F05BFD8046B8F1000F02D0B8F130
:1039F000040F01DD641C1AE0702D02DD0025B81CE7
:103A0000C7B201AA02A9BDF80C0000F0A2FD40B99E
:103A100000969DF804309DF8082039462846FFF7A7
:103A200089FE05F11000C5B2444400BF00BF2078F4
:103A30000028BED1BDE8FF9F01B584B04FF480706F
:103A4000012104AA0B46CDE9002102900022782131
:103A50000248FEF7ADF805B000BD00007C00002074
:103A600001B584B04FF48070012104AA0B46CDE962
:103A700000210290402278210248FEF799F805B013
:103A800000BD00007C0000207047000070B50546B6
:103A90000C4616464FF080400F490860032000F0A6
:103AA00081F8C4F3074000F07DF8C4F3072000F06C
:103AB00079F8E0B200F076F804E0FF2000F072F848
:103AC00028706D1C301EA6F101018EB2F5D14FF4A5
:103AD00080400149086070BD1804024010B500F034
:103AE0004DF8044604F03C0088B100F0C1F84FF0F6
:103AF000804007490860012000F054F8002000F0E1
:103B000051F84FF480400249086000F087F810BD7A
:103B10001804024004480068006840F04000024970
:103B20000968086070470000D00000202DE9F041CE
:103B300000240025002600274FF080400E49086031
:103B40009F2000F02FF8FF2000F02CF80546FF2002
:103B500000F028F80646FF2000F024F807464FF44E
:103B6000804005490860280440EA062040EA07042E
:103B70002046BDE8F08100001804024010B54FF067
:103B8000804007490860052000F00CF8FF2000F095
:103B900009F804464FF4804001490860204610BDF2
:103BA0001804024010B504464FF4805019490860CB
:103BB0000AE018490868411E164A116020B9002021
:103BC00000F066F8C0B210BD134800688068C0F30A
:103BD00040000028EDD010480068C4604FF48050C9
:103BE0000C4908600AE00B490868411E094A116047
:103BF00020B9012000F04CF8C0B2E4E706480068A4
:103C0000806800F001000028EDD003480068C0681B
:103C1000C0B2D8E74C000020D000002010B500242E
:103C20004FF08040104908600520FFF7BBFF4FF4BC
:103C300080500E49086000BFFF20FFF7B3FF044625
:103C40000A490868411E094A116018B9042000F0A9
:103C50001FF810BD04F001000028EDD14FF48040A2
:103C60000149086000BFF4E7180402404C0000203E
:103C700010B54FF08040054908600620FFF792FF1D
:103C80004FF480400149086010BD00001804024054
:103C900010B50446214602A000F0A6FC002010BD8D
:103CA0003C3C2D464C4153482D4552524F522D3EDF
:103CB0003E205350492074696D656F7574212065ED
:103CC00072726F72436F6465203D2025640A0000A4
:103CD000704710B5FEF762F810BD000000B593B054
:103CE000302107A8FCF7B6FA142102A8FCF7B2FAB3
:103CF00000BF002001902448006840F08050224915
:103D000008600846006800F08050019000BF00BFC6
:103D100000BF002001901D48006840F480401B490E
:103D200008600846006800F48040019000BF00BFB2
:103D3000012007900004089002200D9041050E918B
:103D400004210F91A82110910221119104211291B7
:103D500007A8FEF73DFA08B1FDF74FF90F200290D2
:103D600002200390002004904FF4A05005904FF4DF
:103D700080500690052102A8FEF7EAF808B1FDF789
:103D80003CF913B000BD0000403802400070004014
:103D90000348006840F47000014908607047000063
:103DA00088ED00E070B50446A56B0020E885284644
:103DB000FEF7F8FD70BD70B506460025B46B2068AF
:103DC0004069C0F3C01594F84100212805D125B100
:103DD0000020E084204600F0C8F820684069C0F365
:103DE000801594F84200222805D125B10020E085F5
:103DF000204600F074F8606C40F0100060642046CB
:103E0000FEF7D0FD70BD70B50546AC6B2868006844
:103E100000F48070002842D1E08500BF00BF216817
:103E20000C3151E8001F21F4807021680C3141E809
:103E30000002002AF3D100BF00BF00BF2168143187
:103E400051E8001F21F001002168143141E800020F
:103E5000002AF3D100BF00BF00BF2168143151E830
:103E6000001F21F040002168143141E80002002ABF
:103E7000F3D100BF202084F84200206B01280ED12E
:103E800000BF00BF21680C3151E8001F21F0100075
:103E900021680C3141E80002002AF3D100BF002064
:103EA0006063206B012804D1A18D2046FEF7D8FC69
:103EB00002E02046FFF74AF870BD70B50546AC6BCE
:103EC00001206063206B012805D1A08D41082046A8
:103ED000FEF7C6FC02E02046FFF739F870BD00BFD0
:103EE00000BF02680C3252E8002F22F49071026881
:103EF0000C3242E80013002BF3D100BF00BF00BF1B
:103F00000268143252E8002F22F0010102681432D4
:103F100042E80013002BF3D100BF016B01290ED141
:103F200000BF00BF02680C3252E8002F22F01001DF
:103F300002680C3242E80013002BF3D100BF2021AD
:103F400080F8421000210163704710B504462068D4
:103F5000C06820F040002168C860202084F841003B
:103F60002046FFF754F8002010BD00BF00BF0268D4
:103F70000C3252E8002F22F0C00102680C3242E8F5
:103F80000013002BF3D100BF202180F841107047AF
:103F9000F8B504460025002694F84200222873D183
:103FA000A068B0F5805F0BD1206948B9A66A206887
:103FB0004068C0F308003080A06A801CA06214E052
:103FC000A56AA068B0F5805F03D0A06828B9206911
:103FD00018B920684068287004E02068406800F044
:103FE0007F002870A06A401CA062E08D401E80B255
:103FF000E085002846D12068C06820F020002168B4
:10400000C8602068C06820F480702168C86020689B
:10401000406920F0010021684861202084F84200B6
:1040200000206063206B012826D10020206300BFA0
:1040300000BF21680C3151E8001F21F010002168F9
:104040000C3141E80002002AF3D100BF206800686B
:1040500000F0100010280AD100BF00200090206856
:104060000068009020684068009000BF00BFA18DEC
:104070002046FEF7F5FB02E02046FEF767FF002032
:10408000F8BD01E00020FBE70220F9E72DE9F84F39
:1040900004462068006920F44050E1680843216824
:1040A00008612169A068084361690843E169084320
:1040B00000902068C06849F20C6188430099084369
:1040C0002168C8602068406920F44070A1690843F5
:1040D0002168486176492068884203D07549206884
:1040E000884203D1FEF70CF8814602E0FDF7F8FFA5
:1040F0008146E069B0F5004F6CD102206168A0FBF9
:10410000015003461920A9FB007001462A46384693
:10411000FCF756F86421B0FBF1F04FEA001A0220D8
:104120006168A0FB01510B461920A9FB00712A46CA
:104130003846FCF745F8834602206168A0FB015031
:1041400003461920A9FB00712A463846FCF738F8C7
:104150006421B0FBF1F000EBC00101EB0010ABEB10
:104160008000322101EBC0006421B0FBF1F000F0CF
:10417000F8000AEB400A02206168A0FB01500346E8
:104180001920A9FB007001462A463846FCF718F8AA
:10419000834602206168A0FB015003461920A9FB59
:1041A00000712A463846FCF70BF86421B0FBF1F0A9
:1041B00000EBC00101EB0010ABEB8000322101EB02
:1041C000C0006421B0FBF1F000F00700504421680A
:1041D00088606AE004206168A0FB01500346192052
:1041E000A9FB007001462A463846FBF7E9FF8246E4
:1041F00004206168A0FB015003461920A9FB007050
:1042000001462A463846FBF7DBFF6421B0FBF1F09C
:1042100000EBC00101EB0010AAEB8000322101EBA2
:1042200000106421B0FBF1F000F0F00A0420616896
:10423000A0FB017003461920A9FB00513A4628460D
:10424000FBF7BEFF6421B0FBF1F00AEB001A04207B
:104250006168A0FB01510B461920A9FB00712A4699
:104260003846FBF7ADFF834604206168A0FB015090
:1042700003461920A9FB007001462A463846FBF781
:104280009FFF6421B0FBF1F000EBC00101EB0010D7
:10429000ABEB8000322101EB00106421B0FBF1F0A8
:1042A00000F00F00504421688860BDE8F88F0000DE
:1042B000001001400014014077B581B00446154656
:1042C0000298A062A58500206064222084F8420044
:1042D0002C48E16BC8632C48E16B08642B48E16B08
:1042E000C8640020E16B086502AE32682368191DBE
:1042F0002B46E06BFDF7C4F938B110206064202034
:1043000084F84200012004B070BD00BF002000907E
:1043100020680068009020684068009000BF00BFDF
:10432000206970B100BF00BF21680C3151E8001F47
:1043300041F4807021680C3141E80002002AF3D179
:1043400000BF00BF00BF2168143151E8001F41F0D9
:1043500001002168143141E80002002AF3D100BFB6
:1043600000BF00BF2168143151E8001F41F0400038
:104370002168143141E80002002AF3D100BF002077
:10438000C1E70000073E0008BB3E0008B73D00083B
:10439000014691F84100212828D18868B0F5805F56
:1043A0000BD1086948B90A6A1088C0F308000B6885
:1043B0005860086A801C086205E00B6A581C086295
:1043C00018780B685860C88C401E80B2C88458B9F1
:1043D0000868C06820F080000B68D8600868C06872
:1043E00040F040000B68D860002070470220FCE7D6
:1043F0002DE9F84304460D4617469846089E31E0DD
:10440000701C70B3FDF7E6FAA0EB0800B04200D8CC
:1044100016B90320BDE8F8832068C06800F00400E6
:10442000F8B1802D1ED0402D1CD020680068C0F34C
:10443000C000B0B100BF002000902068006800906C
:1044400020684068009000BF00BF2046FFF747FD8E
:104450000820606400BF002084F8400000BF0120F5
:10446000D8E7FFE7206800682840A84201D1012072
:1044700000E00020B842C3D00020CBE710B50248CE
:10448000FEF792FA10BD00004801002010B5024866
:10449000FEF78AFA10BD00009001002010B5024618
:1044A0000B461178802902DA1980012010BD01F035
:1044B000E000C0280ED1507800F0C000802801D064
:1044C0000020F3E701F01F04507864F39F10188078
:1044D0000220EBE701F0F000E0281AD1507800F05C
:1044E000C000802801D00020E0E7907800F0C000F4
:1044F000802801D00020D9E70803547804F03F0455
:1045000040EA8410947804F03F042043188003208C
:10451000CCE701F0F800F02819D1507800F0C00085
:10452000802801D00020C1E7907800F0C0008028EA
:1045300001D00020BAE7D07800F0C000802801D078
:104540000020B3E74FF6FD7018800420AEE700208E
:10455000ACE7F0B507460C461546384600F018F8AB
:1045600006464FF6FF70864204D100202070287066
:104570000120F0BD5E2096FBF0F0B03020705E2090
:1045800096FBF0F100FB1160A13028700020F0E7ED
:1045900070B50246002341F66A2418E0E01A00EBE9
:1045A000D07603EB6606B1B20C4830F81150954254
:1045B00003D10B4830F8110070BD954202DA481C57
:1045C00083B203E001B904E0481E84B200BFA342F5
:1045D000E4DD00BF4FF6FF70EEE70000DC5A000894
:1045E000B28F000800BFFEE70FB4054B10B503A95A
:1045F000044A029800F03EF910BC5DF814FB00007C
:10460000AD4F0008740000200FB4084B10B504A98A
:1046100002AA039800F02EF9044602A9002000F037
:10462000C0FC204610BC5DF814FB0000A34F00083E
:1046300002480068C0F30220704700000CED00E063
:1046400010B5002804DB0A07130E054A135406E0D0
:104650000A07140E034A00F00F031B1FD45410BDA9
:1046600000E400E018ED00E000487047780000200A
:1046700030B583B0044600F017F89FED090B0546EE
:104680008DED000B002221466846FBF7C0FE284650
:1046900000F020F89DED000B03B030BD00000000DD
:1046A00000000000000000000148006870470000A2
:1046B0007800002002E008C8121F08C1002AFAD1C1
:1046C00070477047002001E001C1121F002AFBD192
:1046D0007047000001490860704700007800002022
:1046E0002DE9FF5F82B00021DDE90430020DDDF825
:1046F00040B0034318D044F61050A2F2FF324243B8
:104700001514119801281FD0A5EB0B00401C5FEA7F
:10471000000A4FF000064E4FDFF83891B046504681
:1047200015D5CAF1000413E0119801244AA3012809
:1047300001D16FEA0B010298119AC0E90031C0E97A
:10474000024206B0BDE8F09FCBF10000DFE704466F
:104750000021404A491842EB0450CDE9001012E014
:10476000E00707D032463B4640464946FBF798FFF4
:104770008046894632463B4610461946FBF790FF75
:1047800006460F466410002CEAD1DDE90401DDE99C
:104790000023BAF1000F06DAFBF782FF42464B46D0
:1047A000FBF77EFF05E0FBF7EDFF42464B46FBF7CC
:1047B000E9FF04460E460022284BFCF76BF803D8AD
:1047C0004FF0FF30014607E00022254B20463146DE
:1047D000FBF7BFFEFCF745F8102409E0002C0ADBCC
:1047E0000A220023FBF7ECFC039B30321A55641EAF
:1047F00050EA0102F2D1641C039AC4F1110314447B
:10480000119A012A03D0012208430DD10AE008437E
:1048100004D000204FF0110B119072E7A3EB0B05B1
:104820006D1E0DE05B4504DD4FF0000205F1010552
:1048300004E003DA4FF00002A5F10105002AECD0F4
:1048400002981199C0E90231C0E9004579E70000FA
:10485000000014400000F03F300000000000F04372
:104860000000E03F30380A2801D2012070470020C4
:10487000704700002DE9FF4F95B09B4689460646DC
:1048800000250FE2252877D100242746F84A012188
:10489000059400E0044316F8013F203B01FA03F0C1
:1048A0001042F7D130782A2811D06FF02F033078DA
:1048B000A0F13002092A16D8059A44F0020402EB4E
:1048C000820203EB42021044761C0590EFE759F890
:1048D000042B0592002A03DA504244F40054059058
:1048E00044F00204761C30782E2816D116F8010FF9
:1048F00044F004042A280DD06FF02F023078A0F184
:104900003003092B09D807EB870302EB4303C718D1
:10491000761CF3E759F8047B761C30786C280FD0AE
:1049200006DC4C2817D068280DD06A2814D104E082
:10493000742810D07A280FD10DE044F400140AE056
:1049400044F4801401E044F440147278824202D1AD
:1049500004F58014761C761C307866280BD013DCA6
:10496000582877D009DC002875D04528F6D046288D
:10497000F4D047281AD19DE118E0632835D0642887
:1049800079D0652812D195E1702873D008DC6728AA
:10499000F1D069286FD06E280DD06F2806D1B5E010
:1049A00073282CD0752875D0782874D05A4617995A
:1049B00090476D1C75E1C4F30250022809D003280A
:1049C0000DD0D9F8001004280DD00D6009F10409AC
:1049D00067E1D9F80010EA17C1E90052F6E7D9F803
:1049E00000100D80F2E70D70F0E719F8041B8DF848
:1049F000001000208DF80100EA46012003E059F87C
:104A000004AB4FF0FF3061074FF0000102D40DE01E
:104A100008F101018846B9420FDA8045F8DB1AF83F
:104A200008100029F4D108E008F10101884681420C
:104A3000FADB1AF808100029F6D105985B46A0EBBE
:104A4000080721463846179A00F094FA284400EBEC
:104A5000080507E04DE029E10DE01AF8010B5A4680
:104A600017999047B8F10108F7D25B4621463846BE
:104A7000179A13E142E00A220092C4F302524FF067
:104A8000000A022A08D059F804CB032A4FEAEC7135
:104A90000AD00DE029E02AE009F1070121F0070220
:104AA000F2E802C1914609E00FFA8CFC4FEAEC7182
:104AB000042A03D14FFA8CFC4FEAEC71002907DA83
:104AC0000A460021DCF1000C61EB02012D2202E01C
:104AD000220504D52B228DF80420012203E0E207F1
:104AE00001D02022F7E7904659E00A2102E0102287
:104AF0000DE010214FF0000A00910BE010224FF062
:104B0000000A44F004040827009203E008224FF052
:104B1000000A0092C4F30252022A05D059F804CBCD
:104B20000021032A08D009E009F1070121F007025A
:104B3000F2E802C1914605E01FFA8CFC042A01D17B
:104B40000CF0FF0C4FF00008220728D5702806D083
:104B5000009B83F0100353EA0A0305D00EE04022C5
:104B60008DF80420012208E05CEA010206D0302220
:104B70008DF804208DF8050002229046009B83F0FA
:104B8000080353EA0A030AD15CEA010201D1620771
:104B900005D530228DF804204FF001087F1E5828DB
:104BA00004D034A003900EA802900DE036A0F9E7DF
:104BB00053466046009AFBF703FB84460398825CE9
:104BC0000298401E029002705CEA0100F0D1029847
:104BD00006A9081A00F1200A600702D524F48034DF
:104BE00000E00127574502DDA7EB0A0000E00020A6
:104BF00000EB0A01009005984144401A0590E0033B
:104C000006D45B462146179A059800F0B3F905448F
:104C1000002706E001A85A46C05D179990476D1C11
:104C20007F1C4745F6DBE0030CD55B462146179A0F
:104C3000059800F09FF9054404E030205A46179982
:104C400090476D1C0099481E00900029F5DC08E093
:104C5000029802995A460078491C02911799904788
:104C60006D1CBAF10001AAF1010AF1DC65E1000056
:104C70000928010030313233343536373839616232
:104C800063646566000000003031323334353637F6
:104C900038394142434445460000000000F058F9CD
:104CA0000544761C307800287FF4ECAD19B0284616
:104CB000BDE8F08F620700D4062709F1070222F051
:104CC000070CFCE80223E14603F000485FEA080C09
:104CD00002D00FF2702C0DE05FEA045C02D50FF2F7
:104CE000682C07E05FEAC47C02D00FF2602C01E080
:104CF000AFF2700C4FF0FF3823F00043CDF850C0F6
:104D000065280CD006DC452809D046281DD0472848
:104D10003DD13DE0662818D067287ED138E00021DB
:104D2000112F01DB112000E0781CCDE9000106A95C
:104D30000EA8FFF7D5FCDDE90F010E9A03910021C3
:104D4000009207F1010A04914DE04FF000400097F6
:104D5000CDE9011006A90EA8FFF7C2FCDDE90F029C
:104D600003920E9B11990022DDF80CA0009304928F
:104D700011B9791C00EB010AB7EB0A0004D4C0F1A9
:104D8000FF3007F1010A0490AAEB0700019044E00C
:104D9000012F00DA01270021112F01DD112000E091
:104DA0003846CDE9000106A90EA8FFF799FCDDE918
:104DB0000F010E9A0391002104910092BA46210737
:104DC0000CD40399514500DA8A46BAF1010F05DD8A
:104DD000009AAAF10101515C302908D0B84202DAE8
:104DE00010F1040F06DA0121CDE9011015E0AAF156
:104DF0000101E9E7002805DC049901440491AAEBCC
:104E0000000102E0411C514500DD8A460499401A28
:104E1000401C01904FF000400290200704D40198FC
:104E2000504501DBCDF8048000208DF84F0002983A
:104E30000DF14F07B0F1004F25D02B200E900298B6
:104E40004FF0020800280CDA404202902D200E900C
:104E500007E00A210298FBF789FA3031029007F83F
:104E6000011DB8F10001A8F10108F2DC0298002848
:104E7000EFD1791E0E980870307800F0200040F0D5
:104E8000450007F8020D12A8C01B00F1070814988E
:104E9000007800B1012000EB0A01019801EBE071FC
:104EA00005984144401A401E0590E00306D45B4635
:104EB0002146179A059800F05DF80544149800788B
:104EC00018B15A46179990476D1CE00324D55B46EC
:104ED0002146179A059800F04DF805441CE0049807
:104EE000002807DBDDE90301884203DD0098405C10
:104EF000179901E0179930205A469047049805F118
:104F00000105401C04900198401E019004D12E2000
:104F10005A46179990476D1CBAF10001AAF1010A8F
:104F2000DDDC05E017F8010B5A46179990476D1C18
:104F3000B8F10001A8F10108F4DC5B462146179A9C
:104F40000598ABE62D0000002B00000020000000BB
:104F50002DE9F041044600251E461746880404D476
:104F600005E039462020B0476D1C641EF9D528465F
:104F7000BDE8F0812DE9F041044600251E4690462B
:104F8000C80301D5302700E02027880404D505E0B8
:104F900041463846B0476D1C641EF9D52846BDE829
:104FA000F0810A68531C0B601070704713B50C46F3
:104FB0004FF6FF73012269460248FDF7C9FF0098CA
:104FC0001CBD00009001002010B500242FE004EB70
:104FD0004400184901EB4000007930B304EB440071
:104FE00001EB40000079012806D0022808D00328F0
:104FF0000AD0042810D10BE00FA0FFF7F5FA0CE05F
:105000000FA0FFF7F1FA08E00FA0FFF7EDFA04E0B8
:105010000FA0FFF7E9FA00E000BF00BF002004EB9B
:105020004401044A02EB41010871601CC4B2042C23
:10503000CDDB10BD5800002062310D0A00000000D9
:1050400062320D0A0000000062330D0A0000000009
:1050500062340D0A000000002DED028B8AB000249E
:10506000FCF7A8FEFEF73AFEFEF730FAFEF7EAF983
:10507000FEF7A4FAFEF7E2FAFEF7BEFAFEF7FAFA36
:10508000FEF748FDFEF72AFDFEF750FD05462946CE
:105090003DA0FFF7A9FAFEF729FBFEF70BFB4048FE
:1050A000854213D1FBF7D9FF0446002000900CB1D4
:1050B0003CA000E03DA00246102300210846FEF778
:1050C00007FC4FF4FA70FCF725FB0AE000201023E0
:1050D00038A201460090FEF7FBFB4FF4FA60FCF7A4
:1050E00019FBFBF7E1FF202235493648FDF780FB2D
:1050F000FEF7E0FA46E0FBF7CBFF10EE106A304611
:10510000FBF705F941EC180B53EC182B2EA102A864
:10511000FFF77AFA0020102302AA01460090FEF75A
:10512000D7FBFBF7BBFF10EE106A3046FBF7EFF83A
:1051300041EC180B53EC182B26A102A8FFF764FAD8
:105140000020102302AA02210090FEF7C1FB244890
:10515000007838B134B10023224A04211846FEF702
:105160001FFC0DE064B1002010231FA20421009059
:10517000FEF7AEFB00231DA204211820FEF7DCFB86
:10518000FFF722FFB7E7000057323551313620498B
:10519000443A2030782530366C580D0A0000000063
:1051A0001540EF00466F6E74204F4B004E6F204647
:1051B0006F6E7400464C4153482045525221000006
:1051C0006C070020900100204C61743A252E366651
:1051D000000000004C6F6E3A252E3666000000007D
:1051E000480000206C08002047505300B6C0BDC7DF
:1051F000CADE0000000610160006101600000000AF
:105200000000000001020304060708090000000076
:10521000010203040000000000000000002F000055
:1052200000000700070000147F147F1400242A7F69
:105230002A120062640813230036495522500000E8
:105240000503000000001C224100000041221C0058
:105250000014083E08140008083E0808000000A0DA
:1052600060000008080808080000606000000020D6
:1052700010080402003E5149453E0000427F4000B4
:10528000004261514946002141454B31001814123A
:105290007F10002745454539003C4A494930000107
:1052A0007109050300364949493600064949291E56
:1052B00000003636000000005636000000081422B8
:1052C00041000014141414140000412214080002B8
:1052D0000151090600324959513E007C1211127CDD
:1052E000007F49494936003E41414122007F41410A
:1052F000221C007F49494941007F09090901003EFC
:105300004149497A007F0808087F0000417F410039
:10531000002040413F01007F08142241007F4040AF
:105320004040007F020C027F007F0408107F003E97
:105330004141413E007F09090906003E4151215E7D
:10534000007F091929460046494949310001017F7A
:105350000101003F4040403F001F2040201F003F10
:105360004038403F006314081463000708700807C2
:1053700000615149454300007F41410000552A55D5
:105380002A55000041417F00000402010204004050
:105390004040404000000102040000205454547872
:1053A000007F484444380038444444200038444492
:1053B000487F00385454541800087E090102001830
:1053C000A4A4A47C007F080404780000447D40006D
:1053D000004080847D00007F102844000000417F51
:1053E0004000007C04180478007C0804047800382D
:1053F0004444443800FC242424180018242418FCB5
:10540000007C0804040800485454542000043F441D
:105410004020003C4040207C001C2040201C003CE0
:105420004030403C004428102844001CA0A0A07C30
:10543000004464544C441414141414140000000068
:10544000000000000000000000000000000000F864
:1054500000000000000000333000000000100C06C7
:10546000100C0600000000000000000040C0784062
:10547000C0784000043F04043F040400007088FC2E
:1054800008300000001820FF211E0000F008F00086
:10549000E018000000211C031E211E0000F00888F7
:1054A000700000001E2123241927211010160E0061
:1054B000000000000000000000000000000000E00C
:1054C0001804020000000007182040000002041821
:1054D000E00000000040201807000000404080F07D
:1054E000804040000202010F01020200000000F0B3
:1054F000000000000101011F010101000000000087
:105500000000000080B070000000000000000000FB
:105510000000000000010101010101010000000084
:10552000000000000030300000000000000000001B
:1055300080601804006018060100000000E01008F8
:105540000810E000000F102020100F00001010F8CD
:10555000000000000020203F20200000007008080C
:10556000088870000030282422213000003008888C
:10557000884830000018202020110E000000C020B4
:1055800010F8000000070424243F240000F80888D5
:10559000880808000019212020110E0000E0108862
:1055A00088180000000F112020110E000038080894
:1055B000C83808000000003F0000000000708808A4
:1055C00008887000001C222121221C0000E0100825
:1055D0000810E0000000312222110F00000000C07E
:1055E000C00000000000003030000000000000801B
:1055F000000000000000806000000000000080400B
:105600002010080000010204081020004040404023
:105610004040400004040404040404000008102076
:1056200040800000002010080402010000704808BB
:105630000808F0000000003036010000C030C82823
:10564000E810E0000718272423140B000000C038DE
:10565000E0000000203C23020227382008F8888858
:1056600088700000203F202020110E00C030080864
:1056700008083800071820202010080008F808083B
:105680000810E000203F202020100F0008F8888834
:10569000E8081000203F20202320180008F8888800
:1056A000E8081000203F200003000000C030080878
:1056B0000838000007182020221E020008F8080001
:1056C0000008F808203F210101213F20000808F8C8
:1056D000080800000020203F2020000000000808EB
:1056E000F8080800C08080807F00000008F888C0AB
:1056F00028180800203F20012638200008F808005C
:1057000000000000203F20202020300008F8F80092
:10571000F8F80800203F003F003F200008F830C0A4
:105720000008F808203F200007183F00E010080894
:105730000810E0000F10202020100F0008F80808C3
:105740000808F000203F210101010000E0100808D6
:105750000810E0000F18242438504F0008F88888FB
:1057600088887000203F2000030C302000708808DB
:10577000080838000038202121221C00180808F8E9
:10578000080818000000203F2000000008F808006A
:105790000008F808001F202020201F00087888003B
:1057A00000C83808000007380E010000F80800F8AB
:1057B0000008F800033C0700073C03000818688055
:1057C0008068180820302C03032C30200838C800CB
:1057D000C83808000000203F20000000100808081A
:1057E000C83808002038262120201800000000FEBC
:1057F000020202000000007F40404000000C30C068
:1058000000000000000000010638C0000002020293
:10581000FE000000004040407F0000000000040245
:105820000202040000000000000000000000000070
:105830000000000080808080808080800002020460
:105840000000000000000000000000000000808058
:10585000808000000019242222223F2008F80080C6
:1058600080000000003F112020110E000000008089
:1058700080800000000E1120202011000000008018
:105880008088F800000E112020103F20000080804A
:1058900080800000001F222222221300008080F05E
:1058A000888888180020203F202000000000808089
:1058B00080808000006B94949493600008F80080CE
:1058C00080800000203F210000203F200080989829
:1058D000000000000020203F202000000000008089
:1058E0009898000000C08080807F000008F80000C9
:1058F00080808000203F24022D302000000808F81E
:10590000000000000020203F2020000080808080D8
:1059100080808000203F20003F20003F808000806A
:1059200080800000203F210000203F200000808078
:1059300080800000001F202020201F008080008029
:105940008000000080FFA12020110E0000000080D8
:1059500080808000000E112020A0FF8080808000C9
:105960008080800020203F212000010000008080F6
:10597000808080000033242424241900008080E0EB
:10598000808000000000001F2020000080800000B8
:1059900000808000001F202020103F208080800099
:1059A0000080808000010E300806010080800080A9
:1059B000008080800F300C030C300F0000808000CE
:1059C000808080000020312E0E31200080808000F9
:1059D0000080808080818E701806010000808080A9
:1059E000808080000021302C222130000000000047
:1059F000807C020200000000003F40400002027C68
:105A0000800000000040403F000000000000000057
:105A1000FF00000000000000FF000000402214080A
:105A2000F40200F80808FF0808F800000000000071
:105A30000000000000000000000000000844824157
:105A40003F00206321213F21293360000000000036
:105A50000000000000000000000000002010E8240A
:105A6000272424E424342C20E0000000000000005F
:105A700000000000000000000000000080601F091E
:105A80000909097F090949897F0000000000000019
:105A900000000000000000000000000000007C5436
:105AA0005556547C545655547C00000000000000AC
:105AB000000000000000000000000000010101FDE6
:105AC00045454545454545FD0101010000000000F3
:105AD000000000000000000000000000004E014E29
